{
  "_format": "hh-sol-artifact-1",
  "contractName": "CAMMFactory",
  "sourceName": "contracts/CAMMFactory.sol",
  "abi": [
    {
      "anonymous": false,
      "inputs": [
        {
          "indexed": true,
          "internalType": "address",
          "name": "token0",
          "type": "address"
        },
        {
          "indexed": true,
          "internalType": "address",
          "name": "token1",
          "type": "address"
        },
        {
          "indexed": false,
          "internalType": "address",
          "name": "pair",
          "type": "address"
        },
        {
          "indexed": false,
          "internalType": "uint256",
          "name": "allPairsLength",
          "type": "uint256"
        }
      ],
      "name": "PairCreated",
      "type": "event"
    },
    {
      "inputs": [
        {
          "internalType": "uint256",
          "name": "",
          "type": "uint256"
        }
      ],
      "name": "allPairs",
      "outputs": [
        {
          "internalType": "address",
          "name": "",
          "type": "address"
        }
      ],
      "stateMutability": "view",
      "type": "function"
    },
    {
      "inputs": [],
      "name": "allPairsLength",
      "outputs": [
        {
          "internalType": "uint256",
          "name": "",
          "type": "uint256"
        }
      ],
      "stateMutability": "view",
      "type": "function"
    },
    {
      "inputs": [
        {
          "internalType": "address",
          "name": "tokenA",
          "type": "address"
        },
        {
          "internalType": "address",
          "name": "tokenB",
          "type": "address"
        },
        {
          "internalType": "address",
          "name": "priceScanner",
          "type": "address"
        }
      ],
      "name": "createPair",
      "outputs": [
        {
          "internalType": "address",
          "name": "pair",
          "type": "address"
        }
      ],
      "stateMutability": "nonpayable",
      "type": "function"
    },
    {
      "inputs": [
        {
          "internalType": "address",
          "name": "",
          "type": "address"
        },
        {
          "internalType": "address",
          "name": "",
          "type": "address"
        }
      ],
      "name": "getPair",
      "outputs": [
        {
          "internalType": "address",
          "name": "",
          "type": "address"
        }
      ],
      "stateMutability": "view",
      "type": "function"
    }
  ],
  "bytecode": "0x60808060405234601557615f48908161001a8239f35b5f80fdfe60806040526004361015610011575f80fd5b5f5f3560e01c80631e3dd18b14610323578063574f2ba31461030657806376f797381461009d5763e6a4390514610046575f80fd5b3461009a57604036600319011261009a576040610061610391565b9161006a6103a7565b6001600160a01b0393841682526020828152929091209083165f9081529082526040908190205490519216825290f35b80fd5b50346102e85760603660031901126102e8576100b7610391565b6100bf6103a7565b906044356001600160a01b03811691908290036102e8576001600160a01b038381169082168082146102e85710156103005791905b6001600160a01b0383169283156102e8575f848152602081815260408083206001600160a01b038781168552925290912054166102e8576040516bffffffffffffffffffffffff19606092831b8116602083019081529285901b166034820152602881526001600160a01b039093169261016f6048826103bd565b5190209060405190615b5c80830183811067ffffffffffffffff8211176102ec5760209284926103e0843981520301905ff580156102dd576001600160a01b03169182156102e857823b156102e85760405163485cc95560e01b81528160048201528260248201525f8160448183885af180156102dd576102c8575b50808452602084815260408086205f85815290835281812080546001600160a01b0388166001600160a01b03199182168117909255868952888552838920868452909452919020805490921617905560015493680100000000000000008510156102b4575061026284600160209601600155610365565b81549060031b9085821b9160018060a01b03901b19161790557f0d3648bd0f6ba80134a33ba9275ac585d9d315f0ad8355cddefde31afa28d0e9604060015481519086825287820152a3604051908152f35b634e487b7160e01b81526041600452602490fd5b6102d59194505f906103bd565b5f925f6101eb565b6040513d5f823e3d90fd5b5f80fd5b634e487b7160e01b5f52604160045260245ffd5b906100f4565b346102e8575f3660031901126102e8576020600154604051908152f35b346102e85760203660031901126102e8576004356001548110156102e85761034c602091610365565b905460405160039290921b1c6001600160a01b03168152f35b60015481101561037d5760015f5260205f2001905f90565b634e487b7160e01b5f52603260045260245ffd5b600435906001600160a01b03821682036102e857565b602435906001600160a01b03821682036102e857565b90601f8019910116810190811067ffffffffffffffff8211176102ec5760405256fe60e0806040523461045057602081615b5c803803809161001f828561071c565b83398101031261045057516001600160a01b03811690819003610450576040519061004b60408361071c565b600f82526e2634b8bab4b234ba3c902a37b5b2b760891b60208301526040519061007660408361071c565b60048252632820a4a960e11b60208301526040519061009660208361071c565b5f825283516001600160401b03811161055457600454600181811c911680156106f7575b602082101461053657601f8111610694575b50602094601f8211600114610631579481929394955f92610626575b50508160011b915f199060031b1c1916176004555b82516001600160401b03811161055457600554600181811c9116801561061c575b602082101461053657601f81116105d6575b506020601f821160011461057357819293945f92610568575b50508160011b915f199060031b1c1916176005555b81516001600160401b03811161055457600654600181811c9116801561054a575b602082101461053657601f81116104d3575b50602092601f821160011461047257928192935f92610467575b50508160011b915f199060031b1c1916176006555b5f60606040516101cf81610701565b828152826020820152826040820152015273bc91f3dad1a5f19f8390c400196e58073b6a0bc4606060405161020381610701565b73687820221192c5b662b25367f70076a37bc79b6c80825273848b0066793bcc60346da1f49049357399b8d5956020808401829052731364cbbf2cdf5032c47d8226a6f6fbd2afcdacac604080860182905295909401959095525f516020615b3c5f395f51905f5280546001600160a01b031990811690931790557fed8d60e34876f751cc8b014c560745351147d9de11b9347c854e881b128ea60180548316821790557fed8d60e34876f751cc8b014c560745351147d9de11b9347c854e881b128ea602805483169093179092557fed8d60e34876f751cc8b014c560745351147d9de11b9347c854e881b128ea6038054821673bc91f3dad1a5f19f8390c400196e58073b6a0bc41790557f5ea69329017273582817d320489fbd94f775580e90c092699ca6f3d12fdf7d008054821673a02cda4ca3a71d7c46997716f4283aa851c28812179055600d80546001600160a81b0319163360081b610100600160a81b0316179055600e80549091169490941790935551639cd07acb60e01b81525f6004820181905260056024830152909283916044918391905af190811561045c575f91610426575b50608052620f424060a0526305f5e10060c0526103d3608051806013558060145561073f565b506103df60145461073f565b5060405161539e908161079e8239608051816146cf015260a0518181816112560152818161202b015261407a015260c05181818161056a01528181612ccf01526146a70152f35b90506020813d602011610454575b816104416020938361071c565b8101031261045057515f6103ad565b5f80fd5b3d9150610434565b6040513d5f823e3d90fd5b015190505f806101ab565b601f1982169360065f52805f20915f5b8681106104bb57508360019596106104a3575b505050811b016006556101c0565b01515f1960f88460031b161c191690555f8080610495565b91926020600181928685015181550194019201610482565b60065f527ff652222313e28459528d920b65115c16c04f3efc82aaedc97be59f3f377c0d3f601f830160051c8101916020841061052c575b601f0160051c01905b8181106105215750610191565b5f8155600101610514565b909150819061050b565b634e487b7160e01b5f52602260045260245ffd5b90607f169061017f565b634e487b7160e01b5f52604160045260245ffd5b015190505f80610149565b601f1982169060055f52805f20915f5b8181106105be575095836001959697106105a6575b505050811b0160055561015e565b01515f1960f88460031b161c191690555f8080610598565b9192602060018192868b015181550194019201610583565b60055f5260205f20601f830160051c81019160208410610612575b601f0160051c01905b8181106106075750610130565b5f81556001016105fa565b90915081906105f1565b90607f169061011e565b015190505f806100e8565b601f1982169560045f52805f20915f5b88811061067c57508360019596979810610664575b505050811b016004556100fd565b01515f1960f88460031b161c191690555f8080610656565b91926020600181928685015181550194019201610641565b60045f527f8a35acfbc15ff81a39ae7d344fd709f28e8600b4aa8c65c6b64bfe7fe36bd19b601f830160051c810191602084106106ed575b601f0160051c01905b8181106106e257506100cc565b5f81556001016106d5565b90915081906106cc565b90607f16906100ba565b608081019081106001600160401b0382111761055457604052565b601f909101601f19168101906001600160401b0382119082101761055457604052565b5f516020615b3c5f395f51905f52546001600160a01b0316803b15610450575f8091604460405180948193635ca4b5b160e11b83528760048401523060248401525af1801561045c57610790575090565b5f61079a9161071c565b9056fe60806040526004361015610011575f80fd5b5f3560e01c806306fdde03146102a45780630d8dfe7b1461029f5780631d1d1d281461029a57806325225a71146102955780632fb74e6214610290578063313ce5671461028b578063344ff1011461028657806334c4574314610281578063380f3d201461027c5780633be9e6e5146102775780633c130d9014610272578063485cc9551461026d5780634aa12aa014610268578063537d3c5014610263578063540952271461025e5780635bebed7e14610259578063688350bd146102545780636e030f7d1461024f578063714c9e571461024a5780637279e2641461024557806378aeaafd146102405780637f8ae0e71461023b5780637ff36fbe1461023657806395d89b411461023157806397d0f0101461022c5780639a751347146102275780639d9d2e1714610222578063b5de61061461021d578063b6363cf214610218578063b9fe7c1c14610213578063c45a01551461020e578063c535803c14610209578063c7b8a75e14610204578063c9dec8dc146101ff578063d4febb96146101fa578063d7cb416f146101f5578063de642119146101f0578063e064b9bb146101eb578063eb23ae4f146101e6578063eb3155b5146101e15763ed3437f8146101dc575f80fd5b61200c565b611fdd565b611e8f565b611e2b565b611db3565b611d8b565b611cf3565b611ccb565b611c5e565b611bd1565b611ba5565b611aed565b611ab7565b6119f5565b61192d565b611858565b611806565b611751565b611729565b611657565b611578565b6114c6565b611473565b6111ec565b6111a7565b611170565b611153565b6110f7565b6110cf565b611043565b610f8e565b610f22565b610c6b565b610980565b610949565b61092e565b6108d7565b6105fd565b61054b565b6103e2565b6102ef565b5f9103126102b357565b5f80fd5b805180835260209291819084018484015e5f828201840152601f01601f1916010190565b9060206102ec9281815201906102b7565b90565b346102b3575f3660031901126102b3576040515f6004548060011c90600181169081156103d8575b6020831082146103c45782855260208501919081156103ab5750600114610359575b6103558461034981860382610af7565b604051918291826102db565b0390f35b60045f9081529250907f8a35acfbc15ff81a39ae7d344fd709f28e8600b4aa8c65c6b64bfe7fe36bd19b5b8184106103975750500161034982610339565b805484840152602090930192600101610384565b60ff191682525090151560051b01905061034982610339565b634e487b7160e01b5f52602260045260245ffd5b91607f1691610317565b346102b35760203660031901126102b357600435335f908152600b6020526040902061042a90610426906104209084905b905f5260205260405f2090565b54151590565b1590565b8015610518575b61050957335f908152600b602052604090207f73f04af9dcc582a923ec15d3eea990fe34adabfff2879e28d44572e01a54abb6916104ee9161049e90610478908390610413565b54335f908152600b60205260409020600190610495908590610413565b01549033612289565b60175481146104f3575b335f908152600b602052604090206104d0906104c5908390610413565b60015f918281550155565b60408051338152436020820152908101919091529081906060820190565b0390a1005b6105045f6017555f6018555f601955565b6104a8565b63c6dfc20160e01b5f5260045ffd5b50610546610426600161053f846104133360018060a01b03165f52600b60205260405f2090565b0154151590565b610431565b346102b3575f3660031901126102b35760206040516001600160401b037f0000000000000000000000000000000000000000000000000000000000000000168152f35b602435906001600160a01b03821682036102b357565b600435906001600160a01b03821682036102b357565b604435906001600160a01b03821682036102b357565b9181601f840112156102b3578235916001600160401b0383116102b357602083818601950101116102b357565b346102b35760803660031901126102b35760043561061961058e565b9060443590606435906001600160401b0382116102b35761064b6106446106519336906004016105d0565b3691610b4f565b906127ca565b904210156108c85760ff60185416806108b1575b61088b575f5160206152f25f395f51905f52916106856104ee92336134b4565b6107b86106906134e1565b926106996134e1565b9361072b6003546107096106cc6106c36106b289613be9565b6106bd601354613be9565b90612b9f565b6106bd86613be9565b976106bd6106fd6107036106f06106c36106e58d613be9565b6106bd601454613be9565b976106bd6106fd88613be9565b91613be9565b94613be9565b610711612137565b9161071b8361218f565b526107258261219c565b526148c9565b948461073f875f52600860205260405f2090565b556001610754875f52600860205260405f2090565b0155600261076a865f52600860205260405f2090565b01556107a4336003610784875f52600860205260405f2090565b0180546001600160a01b0319166001600160a01b03909216919091179055565b6004610784855f52600860205260405f2090565b6107d36107cd835f52600860205260405f2090565b54612a74565b506107f260016107eb845f52600860205260405f2090565b0154612a74565b5061080a60026107eb845f52600860205260405f2090565b5061081482601755565b61081d42601955565b61082f600160ff196018541617601855565b335f908152600c60205260409020610848908390610413565b55335f908152600c60205260409020610866906107cd908390610413565b50335f818152600c602052604090206104d09190610885908490610413565b54613c73565b60195461012c81018091116108ac57632f3cd79160e21b5f5260045260245ffd5b6120a2565b5060195461012c81018091116108ac574210610665565b630407b05b60e31b5f5260045ffd5b346102b35760603660031901126102b3576108f06105a4565b602435604435916001600160401b0383116102b35761091f6109269261064b61064460209636906004016105d0565b90336128fe565b604051908152f35b346102b3575f3660031901126102b357602060405160068152f35b346102b35760203660031901126102b3576001600160a01b0361096a6105a4565b165f525f602052602060405f2054604051908152f35b346102b35760a03660031901126102b3576109996105a4565b6109a161058e565b604435916064356001600160401b0381116102b3576109c49036906004016105d0565b9190926084356001600160401b0381116102b357610a0d9561064b6109f0610a079336906004016105d0565b9790966106443388610a0233826120e8565b61204f565b91612931565b5f5160206152d25f395f51905f52546001600160a01b031690813b156102b357604051630f8e573b60e21b815260048101829052336024820152915f908390604490829084905af1918215610a865761035592610a76575b506040519081529081906020820190565b5f610a8091610af7565b5f610a65565b61227e565b602435906001600160801b03821682036102b357565b604435906001600160801b03821682036102b357565b606435906001600160801b03821682036102b357565b608435906001600160801b03821682036102b357565b634e487b7160e01b5f52604160045260245ffd5b90601f801991011681019081106001600160401b03821117610b1857604052565b610ae3565b6001600160401b038111610b185760051b60200190565b6001600160401b038111610b1857601f01601f191660200190565b929192610b5b82610b34565b91610b696040519384610af7565b8294818452818301116102b3578281602093845f960137010152565b81601f820112156102b357803590610b9c82610b1d565b92610baa6040519485610af7565b82845260208085019360051b830101918183116102b35760208101935b838510610bd657505050505090565b84356001600160401b0381116102b357820183603f820112156102b357602091610c098583604086809601359101610b4f565b815201940193610bc7565b9060806003198301126102b357600435916024356001600160801b03811681036102b357916044356001600160801b03811681036102b35791606435906001600160401b0382116102b3576102ec91600401610b85565b346102b357610c7936610c14565b8360179492945403610f1357817fe647dc2c1eab2bb66270ff4a61fff662a1c56f03607215f3f2529399b868b4dc8180610d41610d36610f1199610d3b610d366104c59b610d306005610d13610d2160046104139f6001610d02610cf28f610ce4610d139582612970565b5f52600960205260405f2090565b549f5f52600960205260405f2090565b01549c5f52600960205260405f2090565b01546001600160a01b031690565b9c5f52600960205260405f2090565b97612a40565b613ba2565b93612a40565b90610d4b81612a74565b50610d5582612a74565b50610d61828285612583565b610d73875f52600a60205260405f2090565b556001610d88875f52600a60205260405f2090565b0155610da9836002610da2885f52600960205260405f2090565b0154613c73565b610dc1836003610da2885f52600960205260405f2090565b610dd783610885875f52600a60205260405f2090565b610def836001610da2885f52600a60205260405f2090565b610e0660026107eb875f52600960205260405f2090565b50610e1e60036107eb875f52600960205260405f2090565b50610e346107cd865f52600a60205260405f2090565b50610e4c60016107eb875f52600a60205260405f2090565b506002610e61865f52600960205260405f2090565b0154610ee46003610e7a885f52600960205260405f2090565b015492610e8f885f52600a60205260405f2090565b546001610ea48a5f52600a60205260405f2090565b0154604080516001600160a01b038a811682526020820197909752908101969096526060860191909152608085015290911660a0830152819060c0820190565b0390a1610ef85f6017555f6018555f601955565b6001600160a01b03165f908152600b6020526040902090565b005b633433e69960e21b5f5260045ffd5b346102b3575f3660031901126102b357610f3f6015543390613c73565b610f4b33601654613c73565b7f868bf4fd9f135f4e57da23cef8eff49215987aedfe6d915ba6f0d7036c28720960806015546016546040519143835233602084015260408301526060820152a1005b346102b3575f3660031901126102b3576040515f6006548060011c9060018116908115611039575b6020831082146103c45782855260208501919081156103ab5750600114610fe7576103558461034981860382610af7565b60065f9081529250907ff652222313e28459528d920b65115c16c04f3efc82aaedc97be59f3f377c0d3f5b8184106110255750500161034982610339565b805484840152602090930192600101611012565b91607f1691610fb6565b346102b35760403660031901126102b35761105c6105a4565b61106461058e565b600d5460081c6001600160a01b031633036110c057601180546001600160a01b039384166001600160a01b0319918216811790925560128054939094169281168317909355600f80548416909117905560108054909216179055005b631dd2188d60e31b5f5260045ffd5b346102b3575f3660031901126102b357600e546040516001600160a01b039091168152602090f35b346102b35760603660031901126102b3576111106105a4565b602435604435916001600160401b0383116102b357611136610a0d9336906004016105d0565b92909161114d33836111483382613cc7565b61207c565b33612931565b346102b3575f3660031901126102b3576020600354604051908152f35b346102b35760403660031901126102b357602061092661118e6105a4565b602435906111a133836111483382613cc7565b336128fe565b346102b35760403660031901126102b3576111c06105a4565b6024359060018060a01b03165f52600c60205260405f20905f52602052602060405f2054604051908152f35b346102b35760c03660031901126102b357600435611208610a8b565b611210610aa1565b90611219610ab7565b611221610acd565b9260a4356001600160401b0381116102b357611241903690600401610b85565b8560175403610f13576112549086612970565b7f0000000000000000000000000000000000000000000000000000000000000000936001600160401b0385169261128b84836120b6565b61129590826120b6565b9361129f916120b6565b6112a8916120b6565b916112bb865f52600760205260405f2090565b54916112cf875f52600760205260405f2090565b6001015480936112e7895f52600760205260405f2090565b60020154926112fe8a5f52600760205260405f2090565b6003015497828a6113178d5f52600760205260405f2090565b600401546001600160a01b03169b6001600160401b038d991661133a9088612a7e565b9061134491612ab2565b996001600160401b03166113589083612a7e565b9061136291612ab2565b9861136d8282612ae6565b90611378878c612ae6565b9261138292613dd6565b98899861138e92613dd6565b98899561139a89613be9565b906113a491612b9f565b906113ae87613be9565b906113b891612b9f565b916113c291612a40565b6113cb90613ba2565b916113d591612a40565b6113de90613ba2565b6113e791612bce565b946113f191612c59565b916113fb91612c59565b6114059183612289565b61140e91612c88565b6013549061141b91612dfe565b906014549061142991612dfe565b61143291612e2d565b6114435f6017555f6018555f601955565b6001600160a01b03165f908152600b602052604090205f91825260205260409020610f119060015f918281550155565b346102b35760403660031901126102b35761148c6105a4565b6001600160a01b03165f908152600b6020908152604080832060243584528252918290208054600190910154835191825291810191909152f35b346102b35760603660031901126102b3576004356024356001600160401b0381168091036102b3576044356001600160401b0381116102b357611510611516913690600401610b85565b83612970565b815f52600260205260405f20549081156115655760207f83bbbc07896439e5d950a6cead04cbc676180af7a61cecf43f5296475057f57191604051908152a25f90815260026020526040812055005b82630ab5f57d60e01b5f5260045260245ffd5b346102b35760203660031901126102b357600435335f52600c6020526115af6104266104208360405f20905f5260205260405f2090565b61050957335f908152600c602052604090207f73f04af9dcc582a923ec15d3eea990fe34adabfff2879e28d44572e01a54abb6916104ee916115fe906115f6908390610413565b5433306128fe565b506017548114611641575b335f908152600c60205260408120611622908390610413565b5560408051338152436020820152908101919091529081906060820190565b6116525f6017555f6018555f601955565b611609565b346102b3575f60603660031901126102b3576011545f5160206152d25f395f51905f5254602435929160443591600435916001600160a01b039081169116803b156102b357604051630f8e573b60e21b8152600481018490526001600160a01b0390921660248301525f908290818381604481015b03925af18015610a8657611713575b5060125492936117109361170990611703906001600160a01b03165b6001600160a01b031690565b826138d6565b3391612e53565b80f35b61171093505f61172291610af7565b5f926116db565b346102b3575f3660031901126102b357600f546040516001600160a01b039091168152602090f35b346102b3575f3660031901126102b3576040515f6005548060011c90600181169081156117fc575b6020831082146103c45782855260208501919081156103ab57506001146117aa576103558461034981860382610af7565b60055f9081529250907f036b6384b5eca791c62761152d0c79bb0604c104a5fb6f4eb0703f3154bb3db05b8184106117e85750500161034982610339565b8054848401526020909301926001016117d5565b91607f1691611779565b346102b35760603660031901126102b35760043561182261058e565b906044354210156108c85760ff60185416806108b15761088b575f5160206152f25f395f51905f52916106856104ee92336134b4565b346102b35760203660031901126102b357600435335f908152600b6020526040902061188d9061042690610420908490610413565b8015611901575b61050957335f908152600b602052604090207f73f04af9dcc582a923ec15d3eea990fe34adabfff2879e28d44572e01a54abb6916104ee9161049e906118db908390610413565b54335f908152600b602052604090206001906118f8908590610413565b01549033612583565b50611928610426600161053f846104133360018060a01b03165f52600b60205260405f2090565b611894565b346102b3575f60803660031901126102b3576024359060043561194e6105ba565b6011545f5160206152d25f395f51905f525460643593916001600160a01b039081169116803b156102b357604051630f8e573b60e21b8152600481018490526001600160a01b0390921660248301525f908290818381604481015b03925af18015610a86576119df575b506012549394611710946119d890611703906001600160a01b03166116f7565b3391613140565b61171094505f6119ee91610af7565b5f936119b8565b346102b3575f60a03660031901126102b35760243590600435611a166105ba565b60643591608435946001600160401b0386116102b35761064b611a5a92611a44611a529836906004016105d0565b98909161064b368b85610b4f565b973691610b4f565b6011545f5160206152d25f395f51905f52549195916001600160a01b039182169116803b156102b357604051630f8e573b60e21b8152600481018490526001600160a01b0390921660248301525f908290818381604481016119a9565b346102b35760403660031901126102b3576020611ae3611ad56105a4565b611add61058e565b906120e8565b6040519015158152f35b346102b3575f60803660031901126102b357606435906044356004356024356001600160401b0385116102b35761064b611b4892611b32611b409736906004016105d0565b97909161064b368a85610b4f565b963691610b4f565b6011545f5160206152d25f395f51905f52549194916001600160a01b039182169116803b156102b357604051630f8e573b60e21b8152600481018490526001600160a01b0390921660248301525f908290818381604481016116cc565b346102b3575f3660031901126102b357600d5460405160089190911c6001600160a01b03168152602090f35b346102b35760203660031901126102b357600435611bef3382613cc7565b80611c49575b611c019082339161207c565b6040805190611c108183610af7565b60018252601f1901366020830137805115611c445780826020611c349301526149fa565b5f52600260205260405f20555f80f35b61217b565b50611c01611c573083613cc7565b9050611bf5565b346102b35760803660031901126102b357611c776105a4565b611c7f61058e565b606435916044356001600160401b0384116102b357611ca5610a0d9436906004016105d0565b939092611cb733846111483382613cc7565b611cc63382610a0233826120e8565b612931565b346102b3575f3660031901126102b35760155460165460408051928352602083019190915290f35b346102b35760403660031901126102b357611d0c6105a4565b6024359065ffffffffffff82168092036102b357335f9081526001602090815260408083206001600160a01b03851684529091529020805465ffffffffffff1916831790556040519182526001600160a01b03169033907f921a218a75d18e8ec5704851e6b234a85725b21a2521ce889622c35dedc1fa1290602090a3005b346102b3575f3660031901126102b3576010546040516001600160a01b039091168152602090f35b346102b35760803660031901126102b357611dcc6105a4565b602435906044356001600160401b0381116102b357611def9036906004016105d0565b90916064356001600160401b0381116102b357610a0d9461064b611e1a611e249336906004016105d0565b9690953691610b4f565b9033612931565b346102b35760803660031901126102b357611e446105a4565b611e4c61058e565b90604435916064356001600160401b0381116102b357610a0d9361064b611e7a611e899336906004016105d0565b6106443388610a0233826120e8565b916128fe565b346102b357611e9d36610c14565b8360179392935403610f1357611eb39084612970565b611ec5835f52600860205260405f2090565b5490611ed9845f52600860205260405f2090565b6001015492611ef0855f52600860205260405f2090565b60020154611f06865f52600860205260405f2090565b600301546001600160a01b031694611f26875f52600860205260405f2090565b600401546001600160a01b031693611f3d91612a40565b611f4690613ba2565b91611f5091612a40565b611f5990613ba2565b90611f6392612583565b611f6d9030613324565b50604080514381526001600160a01b03831660208201527f3dbaca5d4554979be94eae55db85f4a40d3b96dd626d153692dc87db3347de4e9190a1611fb95f6017555f6018555f601955565b6001600160a01b03165f908152600c602052604090205f9182526020526040812055005b346102b35760603660031901126102b3576020610926611ffb6105a4565b61200361058e565b604435916121e0565b346102b3575f3660031901126102b35760206040516001600160401b037f0000000000000000000000000000000000000000000000000000000000000000168152f35b15612058575050565b631ae7729b60e11b5f9081526001600160a01b039182166004529116602452604490fd5b15612085575050565b63118f6e5360e31b5f5260045260018060a01b031660245260445ffd5b634e487b7160e01b5f52601160045260245ffd5b906001600160801b03169081156120d4576001600160801b03160490565b634e487b7160e01b5f52601260045260245ffd5b6001600160a01b0382811691169081149190821561210557505090565b5f9081526001602090815260408083206001600160a01b0390941683529290522065ffffffffffff9150541642111590565b604051606091906121488382610af7565b6002815291601f1901366020840137565b60405160a0919061216a8382610af7565b6004815291601f1901366020840137565b634e487b7160e01b5f52603260045260245ffd5b805115611c445760200190565b805160011015611c445760400190565b805160021015611c445760600190565b805160031015611c445760800190565b8051821015611c445760209160051b010190565b9061220992916121f533846111483382613cc7565b6122043382610a0233826120e8565b6128fe565b5f5160206152d25f395f51905f52549091906001600160a01b0316803b156102b357604051630f8e573b60e21b815260048101849052336024820152905f908290818381604481015b03925af18015610a86576122635750565b5f61226d91610af7565b565b908160209103126102b3575190565b6040513d5f823e3d90fd5b6011549092906122a1906001600160a01b03166116f7565b60405163344ff10160e01b815230600482015290939091602083602481885afa928315610a86575f93612562575b506012546122e5906001600160a01b03166116f7565b60405163344ff10160e01b81523060048201529490602090869060249082905afa948515610a86575f95612534575b50612390816123285f9697986020946138d6565b60125461234790612341906001600160a01b03166116f7565b856138d6565b60115461235c906001600160a01b03166116f7565b604051632df5f6bf60e11b81526001600160a01b038716600482015260248101929092529095869283919082906044820190565b03925af1918215610a86576123f393602093612519575b506012546123bd906001600160a01b03166116f7565b604051632df5f6bf60e11b81526001600160a01b03909216600483015260248201929092529283919082905f9082906044820190565b03925af18015610a86576124fc575b50601154612418906001600160a01b03166116f7565b60405163344ff10160e01b81523060048201529290602090849060249082905afa928315610a86575f936124db575b5060125461245d906001600160a01b03166116f7565b60405163344ff10160e01b81523060048201529390602090859060249082905afa928315610a86576124a1945f946124a4575b509061249b91612c59565b50612c59565b50565b61249b929194506124cc9060203d6020116124d4575b6124c48183610af7565b81019061226f565b939091612490565b503d6124ba565b6124f591935060203d6020116124d4576124c48183610af7565b915f612447565b6125149060203d6020116124d4576124c48183610af7565b612402565b61252f90843d86116124d4576124c48183610af7565b6123a7565b5f94955060209161232861255761239093853d87116124d4576124c48183610af7565b979650509150612314565b61257c91935060203d6020116124d4576124c48183610af7565b915f6122cf565b60115490919061259b906001600160a01b03166116f7565b60405163344ff10160e01b815230600482015293909290602085602481875afa948515610a86575f956127a9575b506012546125df906001600160a01b03166116f7565b60405163344ff10160e01b81523060048201529390602090859060249082905afa938415610a86575f9461277d575b50612621816123285f96976020946138d6565b03925af1918215610a865761264d9360209361251957506012546123bd906001600160a01b03166116f7565b03925af18015610a8657612760575b50601154612672906001600160a01b03166116f7565b60405163344ff10160e01b815230600482015290602090829060249082905afa908115610a86575f91612741575b506012546126b6906001600160a01b03166116f7565b60405163344ff10160e01b81523060048201529190602090839060249082905afa918215610a865761226d946127189361270f93612706935f9261271e575b506127009192612c59565b94612c59565b92601354612c59565b91601454612c59565b90612e2d565b612700925061273b9060203d6020116124d4576124c48183610af7565b916126f5565b61275a915060203d6020116124d4576124c48183610af7565b5f6126a0565b6127789060203d6020116124d4576124c48183610af7565b61265c565b5f945060209161232861279f61262193853d87116124d4576124c48183610af7565b965050915061260e565b6127c391955060203d6020116124d4576124c48183610af7565b935f6125c9565b5f5160206153525f395f51905f52546128169260209290916127f6906116f7906001600160a01b031681565b905f60405180968195829463196d0b9b60e01b845233906004850161347e565b03925af1908115610a86575f9161289d575b505f5160206152d25f395f51905f525461284c906116f7906001600160a01b031681565b803b156102b357604051630f8e573b60e21b815260048101839052336024820152905f908290604490829084905af18015610a8657612889575090565b806128975f6102ec93610af7565b806102a9565b6128b6915060203d6020116124d4576124c48183610af7565b5f612828565b90602082018092116108ac57565b156128d157565b631a9bbf8b60e11b5f525f60045260245ffd5b156128eb57565b636e41946d60e11b5f525f60045260245ffd5b6102ec9291906129186001600160a01b03821615156128ca565b61292c6001600160a01b03831615156128e4565b6135dc565b6129646102ec959461295661294a61296a9686866128fe565b968792838787336137c4565b61295e61387c565b90613dd6565b916135dc565b90612c59565b90815f525f5160206153725f395f51905f5260205260405f205415612a3157815f525f5160206153725f395f51905f5260205260405f206040519081602082549182815201915f5260205f20905f5b818110612a1b5750505091816129dd610426936129e2950382610af7565b613a2a565b612a0c577f1af0453083661051f6e56e5c070792320652e612154bf9af8637bb1e7655b99d5f80a2565b63cf6c44e960e01b5f5260045ffd5b82548452602090930192600192830192016129bf565b63d66ca67560e01b5f5260045ffd5b6102ec918115612a5a575b6001600160801b031690613b43565b90506001600160801b03612a6c614cdb565b919050612a4b565b6102ec3082613c73565b6102ec918115612a98575b6001600160401b031690613b43565b90506001600160401b03612aaa61387c565b919050612a89565b6102ec918115612acc575b6001600160401b031690613d1b565b90506001600160401b03612ade61387c565b919050612abd565b5f602091612b53938115612b8f575b8015612b81575b5f5160206153525f395f51905f5254604051631391547f60e01b8152600481019390935260248301919091526001600160f81b031983166044830152909384926001600160a01b0390921691839182906064820190565b03925af1908115610a86575f91612b68575090565b6102ec915060203d6020116124d4576124c48183610af7565b50612b8a61387c565b612afc565b9050612b9961387c565b90612af5565b906102ec918015612bc0575b81613d7a579050612bba614cdb565b90613d7a565b50612bc9614cdb565b612bab565b5f602091612b53938115612c49575b8015612c3b575b5f5160206153525f395f51905f52546040516304559f7160e01b8152600481019390935260248301919091526001600160f81b031983166044830152909384926001600160a01b0390921691839182906064820190565b50612c4461387c565b612be4565b9050612c5361387c565b90612bdd565b906102ec918015612c7a575b81613e28579050612c7461387c565b90613e28565b50612c8361387c565b612c65565b9060ff600d5416155f14612dc957612d1e918015612db7575b5f5160206153525f395f51905f52546040516303056db360e31b815260048101929092526001600160401b037f0000000000000000000000000000000000000000000000000000000000000000166024830152600160f81b6044830152909260209184916001600160a01b039091169082905f9082906064820190565b03925af1908115610a8657612d60612d93927f51dad7b997cf4e55c1c151acca1aa99bb4eef471f5bf521b38555f8b01e57476945f91612d98575b5082613e84565b50612d73600160ff19600d541617600d55565b604080514381526001600160a01b03909216602083015290918291820190565b0390a1565b612db1915060203d6020116124d4576124c48183610af7565b5f612d59565b506020612dc261387c565b9050612ca1565b80612df87f51dad7b997cf4e55c1c151acca1aa99bb4eef471f5bf521b38555f8b01e5747693612d9393613e84565b50612d73565b906102ec918015612e1f575b81613f73579050612e1961387c565b90613f73565b50612e2861387c565b612e0a565b612e3f91816013556014553090613c73565b612e4b30601454613c73565b61226d61402e565b90924210156108c85760ff6018541680613129575b61088b57612e7b610426600d5460ff1690565b15612e945761226d92612e8e918361440c565b91614676565b90612eb15f5160206152f25f395f51905f52936106fd9383614160565b90612eba6134e1565b612f3f612ec56134e1565b612f02612ed66106c3601354613be9565b916106bd6106fd612efc612eee6106c3601454613be9565b976106bd6003549d8e613be9565b9a613be9565b92612f0b612159565b91612f158361218f565b52612f1f8261219c565b52601554612f2c826121ac565b52601654612f39826121bc565b52614ad1565b9482612f53875f52600760205260405f2090565b55836001612f69885f52600760205260405f2090565b01556002612f7f875f52600760205260405f2090565b01556003612f95865f52600760205260405f2090565b0155612faf836004610784875f52600760205260405f2090565b612fc46107cd855f52600760205260405f2090565b50612fdc60016107eb865f52600760205260405f2090565b50612ff460026107eb865f52600760205260405f2090565b5061300c60036107eb865f52600760205260405f2090565b5061301684601755565b61301f42601955565b613031600160ff196018541617601855565b6001600160a01b0383165f908152600b60205260409020613053908590610413565b556001613074846104138560018060a01b03165f52600b60205260405f2090565b01556130976107cd836104138460018060a01b03165f52600b60205260405f2090565b506130bb60016107eb846104138560018060a01b03165f52600b60205260405f2090565b506130de81610885846104138360018060a01b03165f52600b60205260405f2090565b613102816001610da2856104138460018060a01b03165f52600b60205260405f2090565b604080516001600160a01b0390921682524360208301528101919091528060608101612d93565b5060195461012c81018091116108ac574210612e68565b9290934210156108c85760ff601854168061330d575b61088b57836132b06131775f5160206152f25f395f51905f5296868661440c565b93909261318a613185615089565b615119565b968761322e8761320c6131fd6131ed6131de6131c06131bb6131b66131b0613185615089565b99613c30565b61482b565b614853565b6106bd6106fd6106b26131d86131bb6131b68d613c30565b98613be9565b9d6106bd6106fd601454613be9565b926106bd6106fd6106e58d613be9565b936106bd6106fd601354613be9565b613214612137565b9161321e8361218f565b526132288261219c565b52614ba8565b986132418a5f52600960205260405f2090565b5560016132568a5f52600960205260405f2090565b0155600261326c895f52600960205260405f2090565b01556003613282885f52600960205260405f2090565b015561329c856004610784895f52600960205260405f2090565b6005610784875f52600960205260405f2090565b6132c56107cd855f52600960205260405f2090565b506132dd60016107eb865f52600960205260405f2090565b506132f560026107eb865f52600960205260405f2090565b5061300c60036107eb865f52600960205260405f2090565b5060195461012c81018091116108ac574210613156565b906001600160a01b03821680158015925f92916133769190613345866128ca565b84146133de5761335781600354614c9a565b91909161336381612a74565b506003555b61337061387c565b91613dd6565b93849361339761338886600354612c59565b61339181612a74565b50600355565b6133ce575b506133a683612a74565b507f67500e8d0ed826d2194f514dd0d8124f35648ab6e3fb5e6ed867134cffe661e98280a490565b6133d89084613c73565b5f61339c565b6001600160a01b0386165f9081526020819052604090205490613403878315156135b4565b6134216134108284612ae6565b9261341b8382612c59565b84613dd6565b61342a81612a74565b506134358882613c73565b6001600160a01b0388165f9081526020819052604090205b55613368565b6054111561345d57565b634e487b7160e01b5f52602160045260245ffd5b90605482101561345d5752565b93926134ab9061226d93606093875260018060a01b031660208701526080604087015260808601906102b7565b93016005613471565b6134cf6102ec92305f525f60205260405f20549230906121e0565b50305f525f60205260405f2054612c59565b5f5160206153525f395f51905f5254604051636baeb74560e11b815290602090829060249082905f906001600160a01b0316613521600484016003613471565b5af18015610a86576102ec915f91613595575b508015818161357e575b61354a61355a91615274565b613552614d69565b613370614d22565b9190613570575b81613f73579050612e19614d22565b50613579614d22565b613561565b5061355a61354a61358d614d22565b91505061353e565b6135ae915060203d6020116124d4576124c48183610af7565b5f613534565b156135bc5750565b636b8830d760e11b5f9081526001600160a01b0391909116600452602490fd5b9092916001600160a01b038216801592916136139084156136eb578061360761336892600354614c9a565b92909261339181612a74565b9485936001600160a01b0382169384159182156136975761363961338888600354612c59565b15613687575b5015613677575b5061365083612a74565b507f67500e8d0ed826d2194f514dd0d8124f35648ab6e3fb5e6ed867134cffe661e95f80a4565b6136819084613c73565b5f613646565b6136919086613c73565b5f61363f565b6136ba876136b48660018060a01b03165f525f60205260405f2090565b54612dfe565b6136c381612a74565b506136ce8582613c73565b6001600160a01b0385165f90815260208190526040902055613639565b61371a816137088660018060a01b03165f525f60205260405f2090565b54613715878215156135b4565b614c7f565b91909161372681612a74565b506137318682613c73565b6001600160a01b0386165f90815260208190526040902061344d565b6001600160a01b039182168152911660208201526040810191909152608060608201819052810183905260a09290918190848401375f828201840152601f01601f1916010190565b3d156137bf573d906137a682610b34565b916137b46040519384610af7565b82523d5f602084013e565b606090565b9195949293909290863b1561386d5760209392916137f79160405196879586956346083bfd60e01b87526004870161374d565b03815f6001600160a01b0388165af15f918161384c575b50613848578261381c613795565b805191908261384157636e41946d60e11b5f526001600160a01b03821660045260245ffd5b9050602001fd5b9150565b61386691925060203d6020116124d4576124c48183610af7565b905f61380e565b505050505090506102ec614cd1565b5f5160206153525f395f51905f5254604051639cd07acb60e01b81525f600482018190529091602091839160449183916001600160a01b03166138c3602484016005613471565b5af1908115610a86575f91612b68575090565b5f5160206152d25f395f51905f52546001600160a01b031691823b156102b357604051630f8e573b60e21b815260048101929092526001600160a01b03166024820152905f90829081838160448101612252565b9061393482610b34565b6139416040519182610af7565b8281528092613952601f1991610b34565b0190602036910137565b908160209103126102b3575180151581036102b35790565b90602080835192838152019201905f5b8181106139915750505090565b8251845260209384019390920191600101613984565b916139bd6139cb92606085526060850190613974565b9083820360208501526102b7565b906040818303910152815180825260208201916020808360051b8301019401925f915b8383106139fd57505050505090565b9091929394602080613a1b600193601f1986820301875289516102b7565b970193019301919392906139ee565b80515f905f905b808210613aee57505091602091613a4a613ab0946128bc565b613a538161392a565b906024858301377fed8d60e34876f751cc8b014c560745351147d9de11b9347c854e881b128ea602545f90613a92906116f7906001600160a01b031681565b9260405196879586948593632c027b1360e21b8552600485016139a7565b03925af1908115610a86575f91613ac5575090565b6102ec915060203d602011613ae7575b613adf8183610af7565b81019061395c565b503d613ad5565b90916009613b1b613aff85876121cc565b51601e1a613b0c81613453565b613b1581613453565b60ff1690565b1015613b3457613b2c6001916128bc565b920190613a31565b63ce54a8d160e01b5f5260045ffd5b5f5160206153525f395f51905f5254604051635a53accb60e01b815260048101929092526024820192909252600160f81b604482015290602090829060649082905f906001600160a01b03165af1908115610a86575f91612b68575090565b5f5160206153525f395f51905f52546040516307227b9160e21b81526004810192909252602090829060449082905f906001600160a01b03166138c3602484016005613471565b5f5160206153525f395f51905f52546040516307227b9160e21b81526004810192909252602090829060449082905f906001600160a01b03166138c3602484016006613471565b60205f91604460018060a01b035f5160206153525f395f51905f5254169160405194859384926307227b9160e21b845260048401526138c3602484016004613471565b5f5160206152d25f395f51905f52546001600160a01b031691823b156102b357604051635ca4b5b160e11b815260048101929092526001600160a01b03166024820152905f90829081838160448101612252565b5f5160206152d25f395f51905f52546040516382027b6d60e01b815260048101929092526001600160a01b039283166024830152909160209183916044918391165afa908115610a86575f91613ac5575090565b5f5160206153525f395f51905f5254604051630afe14ad60e31b815260048101929092526024820192909252600160f81b604482015290602090829060649082905f906001600160a01b03165af1908115610a86575f91612b68575090565b5f5160206153525f395f51905f5254604051630afe14ad60e31b8152600481019290925260248201929092525f604482018190529091602091839160649183916001600160a01b03165af1908115610a86575f91612b68575090565b9060646020925f60018060a01b035f5160206153525f395f51905f5254166040519687958694637702dcff60e01b86526004860152602485015260448401525af1908115610a86575f91612b68575090565b5f5160206153525f395f51905f52546040516303056db360e31b8152600481019290925260248201929092525f604482018190529091602091839160649183916001600160a01b03165af1908115610a86575f91612b68575090565b6001600160a01b0381168015801593909290613ebb90613ea3866128e4565b613eaf81600354614c9a565b90919061336381612a74565b93849315613f2557613ecf84600354612c59565b613ed881612a74565b506003555b613f15575b50613eec82612a74565b505f7f67500e8d0ed826d2194f514dd0d8124f35648ab6e3fb5e6ed867134cffe661e98180a490565b613f1f9083613c73565b5f613ee2565b613f42846136b48460018060a01b03165f525f60205260405f2090565b613f4b81612a74565b50613f568382613c73565b6001600160a01b0383165f90815260208190526040902055613edd565b5f5160206153525f395f51905f525460405163022f65e760e31b8152600481019290925260248201929092525f604482018190529091602091839160649183916001600160a01b03165af1908115610a86575f91612b68575090565b5f5160206153525f395f51905f525460405163022f65e760e31b815260048101929092526024820192909252600160f81b604482015290602090829060649082905f906001600160a01b03165af1908115610a86575f91612b68575090565b61411461404961404461403f6150d1565b615141565b614e32565b61410f6141096140fd6140ec6140e16140e16140e66140d06140ad61406d8a613c30565b6140a76140a163ffffffff7f0000000000000000000000000000000000000000000000000000000000000000168093614e5a565b9b613c30565b90614e88565b986140b6615235565b996140ca81836140c4615235565b9d613dd6565b9a613dd6565b976140d96134e1565b938491613ba2565b614f13565b96613ba2565b936140f8601354613be9565b614f51565b926140f8601454613be9565b91601555565b601655565b61411f601554612a74565b5061412b601654612a74565b50601554600e5461414791906001600160a01b03165b90613c73565b601654600e5461226d91906001600160a01b0316614141565b601154929392614178906001600160a01b03166116f7565b60405163344ff10160e01b815230600482015294909190602086602481865afa958615610a86575f966143eb575b506012546141bc906001600160a01b03166116f7565b60405163344ff10160e01b81523060048201529390602090859060249082905afa938415610a86575f946143c3575b5060405163eb3155b560e01b81526001600160a01b038416600482015230602482015260448101959095529293926020908490815f81606481015b03925af1918215610a865761428f936020936143a8575b50601254614253906001600160a01b03166116f7565b60405163eb3155b560e01b81526001600160a01b03909216600483015230602483015260448201929092529283919082905f9082906064820190565b03925af18015610a865761438b575b506011546142b4906001600160a01b03166116f7565b60405163344ff10160e01b81523060048201529390602090859060249082905afa938415610a86575f9461436a575b506012546142f9906001600160a01b03166116f7565b60405163344ff10160e01b81523060048201529490602090869060249082905afa948515610a86575f9561433d575b506102ec929161433791612c59565b93612c59565b614337919550916143606102ec949360203d6020116124d4576124c48183610af7565b9591509192614328565b61438491945060203d6020116124d4576124c48183610af7565b925f6142e3565b6143a39060203d6020116124d4576124c48183610af7565b61429e565b6143be90843d86116124d4576124c48183610af7565b61423d565b5f94506020916143e261422692843d86116124d4576124c48183610af7565b955091506141eb565b61440591965060203d6020116124d4576124c48183610af7565b945f6141a6565b601154929392614424906001600160a01b03166116f7565b60405163344ff10160e01b815230600482015294909190602086602481865afa958615610a86575f96614655575b50601254614468906001600160a01b03166116f7565b60405163344ff10160e01b81523060048201529390602090859060249082905afa938415610a86575f9461462d575b5060405163eb3155b560e01b81526001600160a01b038416600482015230602482015260448101959095529293926020908490815f81606481015b03925af1918215610a86576144fe936020936143a85750601254614253906001600160a01b03166116f7565b03925af18015610a8657614610575b50601154614523906001600160a01b03166116f7565b60405163344ff10160e01b81523060048201529390602090859060249082905afa938415610a86575f946145ef575b50601254614568906001600160a01b03166116f7565b60405163344ff10160e01b81523060048201529490602090869060249082905afa948515610a86575f956145c2575b506145a6929161433791612c59565b9061226d6145b684601354612dfe565b61271884601454612dfe565b614337919550916145e56145a6949360203d6020116124d4576124c48183610af7565b9591509192614597565b61460991945060203d6020116124d4576124c48183610af7565b925f614552565b6146289060203d6020116124d4576124c48183610af7565b61450d565b5f945060209161464c6144d292843d86116124d4576124c48183610af7565b95509150614497565b61466f91965060203d6020116124d4576124c48183610af7565b945f614452565b905f60206147806147056146f861469e61468f87614f8f565b6146988a614f8f565b90612dfe565b976146ff6146cc7f00000000000000000000000000000000000000000000000000000000000000008b615007565b997f0000000000000000000000000000000000000000000000000000000000000000938491828d613dd6565b988b613dd6565b98613dd6565b60115490969061472190611703906001600160a01b03166116f7565b6012546147409061473a906001600160a01b03166116f7565b886138d6565b601154614755906001600160a01b03166116f7565b604051632df5f6bf60e11b815233600482015260248101929092529093849283919082906044820190565b03925af18015610a86575f946020926147d992614810575b506012546147ae906001600160a01b03166116f7565b604051632df5f6bf60e11b815233600482015260248101929092529095869283919082906044820190565b03925af1928315610a8657612e4b936147f3575b50612c88565b61480b9060203d6020116124d4576124c48183610af7565b6147ed565b61482690843d86116124d4576124c48183610af7565b614798565b801561483d575b60636102ec91613d1b565b506102ec606361484b614dab565b915050614832565b8015614865575b60646102ec91613b43565b506102ec6064614873614dab565b91505061485a565b9060206102ec928181520190613974565b916148aa906040929594958452606060208501526060840190613974565b6001600160e01b0319909416910152565b5f1981146108ac5760010190565b5f5160206153125f395f51905f52545f5160206152d25f395f51905f5254909291906148ff906116f7906001600160a01b031681565b803b156102b3575f6040518092637d6e912360e11b8252818381614926886004830161487b565b03925af18015610a86576149e6575b505f5160206153325f395f51905f5254614959906116f7906001600160a01b031681565b90813b156102b357604051633263b83b60e01b8152915f90839081838161498c63eb23ae4f60e01b888c6004850161488c565b03925af1918215610a86576149a7926149d2575b5083615169565b61226d6149c15f5160206153125f395f51905f52546148bb565b5f5160206153125f395f51905f5255565b806128975f6149e093610af7565b5f6149a0565b806128975f6149f493610af7565b5f614935565b5f5160206153125f395f51905f52545f5160206152d25f395f51905f525490929190614a30906116f7906001600160a01b031681565b803b156102b3575f6040518092637d6e912360e11b8252818381614a57886004830161487b565b03925af18015610a8657614abd575b505f5160206153325f395f51905f5254614a8a906116f7906001600160a01b031681565b90813b156102b357604051633263b83b60e01b8152915f90839081838161498c631c9e789960e21b888c6004850161488c565b806128975f614acb93610af7565b5f614a66565b5f5160206153125f395f51905f52545f5160206152d25f395f51905f525490929190614b07906116f7906001600160a01b031681565b803b156102b3575f6040518092637d6e912360e11b8252818381614b2e886004830161487b565b03925af18015610a8657614b94575b505f5160206153325f395f51905f5254614b61906116f7906001600160a01b031681565b90813b156102b357604051633263b83b60e01b8152915f90839081838161498c636e030f7d60e01b888c6004850161488c565b806128975f614ba293610af7565b5f614b3d565b5f5160206153125f395f51905f52545f5160206152d25f395f51905f525490929190614bde906116f7906001600160a01b031681565b803b156102b3575f6040518092637d6e912360e11b8252818381614c05886004830161487b565b03925af18015610a8657614c6b575b505f5160206153325f395f51905f5254614c38906116f7906001600160a01b031681565b90813b156102b357604051633263b83b60e01b8152915f90839081838161498c6301c079e960e51b888c6004850161488c565b806128975f614c7993610af7565b5f614c14565b6102ec9092919261341b614c938583612ae6565b9482612c59565b90919080614cb15750614cad6001614dec565b9190565b91614cbf6102ec9184612dfe565b92614cca8185612ae6565b9384613dd6565b6102ec6001614dec565b5f5160206153525f395f51905f5254604051639cd07acb60e01b81525f600482018190529091602091839160449183916001600160a01b03166138c3602484016006613471565b5f5160206153525f395f51905f5254604051639cd07acb60e01b81525f600482018190529091602091839160449183916001600160a01b03166138c3602484016003613471565b5f602060018060a01b035f5160206153525f395f51905f525416604460405180948193639cd07acb60e01b8352600360048401526138c3602484016003613471565b5f602060018060a01b035f5160206153525f395f51905f525416604460405180948193639cd07acb60e01b83528160048401526138c3602484016004613471565b5f5160206153525f395f51905f5254604051639cd07acb60e01b81526004810192909252602090829060449082905f906001600160a01b03166138c36024840183613471565b8015614e44575b60646102ec91613d1b565b506102ec6064614e52614d22565b915050614e39565b6102ec918115614e71575b63ffffffff1690613fcf565b905063ffffffff614e80614dab565b919050614e65565b90602063ffffffff604460018060a01b035f5160206153525f395f51905f525416945f6040519687948593639cd07acb60e01b8552166004840152614ed1602484016004613471565b5af18015610a86576102ec925f91614ef4575b5081613e28579050612c74614dab565b614f0d915060203d6020116124d4576124c48183610af7565b5f614ee4565b6102ec918115614f41575b8015614f2e575b612bba90613ba2565b50612bba614f3a614d22565b9050614f25565b9050614f4b61387c565b90614f1e565b6102ec918115614f7f575b8015614f6c575b612bba90613be9565b50612bba614f7861387c565b9050614f63565b9050614f89614cdb565b90614f5c565b8015614ff3575b5f5160206153525f395f51905f52546040516348fcc7ff60e11b8152600481019290925260016024830152600160f81b6044830152602090829060649082905f906001600160a01b03165af1908115610a86575f91612b68575090565b505f6020614fff61387c565b915050614f96565b908115615075575b5f5160206153525f395f51905f5254604051637210768160e01b815260048101939093526001600160401b039091166024830152600160f81b6044830152602090829060649082905f906001600160a01b03165af1908115610a86575f91612b68575090565b9050602061508161387c565b91905061500f565b5f5160206153525f395f51905f52546040516324777a3f60e11b8152614000600482015290602090829060449082905f906001600160a01b03166138c3602484016003613471565b5f5160206153525f395f51905f52546040516324777a3f60e11b8152610100600482015290602090829060449082905f906001600160a01b03166138c3602484016003613471565b801561512b575b60036102ec91613fcf565b506102ec6003615139614d22565b915050615120565b8015615153575b60466102ec91613fcf565b506102ec6046615161614d22565b915050615148565b805f525f5160206153725f395f51905f5260205260405f2054615226575f525f5160206153725f395f51905f5260205260405f208151916001600160401b038311610b1857680100000000000000008311610b18578154838355808410615200575b5060206151dd9101915f5260205f2090565b5f5b8381106151ec5750505050565b6001906020845194019381840155016151df565b825f528360205f2091820191015b81811061521b57506151cb565b5f815560010161520e565b633f06d22b60e01b5f5260045ffd5b5f5160206153525f395f51905f5254604051636baeb74560e11b815290602090829060249082905f906001600160a01b03166138c36004840183613471565b5f5160206153525f395f51905f5254604051637210768160e01b8152600481019290925260036024830152600160f81b6044830152602090829060649082905f906001600160a01b03165af1908115610a86575f91612b6857509056feed8d60e34876f751cc8b014c560745351147d9de11b9347c854e881b128ea60040ac511e5e6ae27363fc6d4c6c8c3e3e2eabb050660665d7bfe6605005535b285ea69329017273582817d320489fbd94f775580e90c092699ca6f3d12fdf7d015ea69329017273582817d320489fbd94f775580e90c092699ca6f3d12fdf7d00ed8d60e34876f751cc8b014c560745351147d9de11b9347c854e881b128ea6015ea69329017273582817d320489fbd94f775580e90c092699ca6f3d12fdf7d02a164736f6c634300081b000aed8d60e34876f751cc8b014c560745351147d9de11b9347c854e881b128ea600a164736f6c634300081b000a",
  "linkReferences": {},
  "deployedLinkReferences": {}
}