{
  "_format": "hh-sol-artifact-1",
  "contractName": "CAMMFactory",
  "sourceName": "contracts/CAMMFactory.sol",
  "abi": [
    {
      "anonymous": false,
      "inputs": [
        {
          "indexed": true,
          "internalType": "address",
          "name": "token0",
          "type": "address"
        },
        {
          "indexed": true,
          "internalType": "address",
          "name": "token1",
          "type": "address"
        },
        {
          "indexed": false,
          "internalType": "address",
          "name": "pair",
          "type": "address"
        },
        {
          "indexed": false,
          "internalType": "uint256",
          "name": "allPairsLength",
          "type": "uint256"
        }
      ],
      "name": "PairCreated",
      "type": "event"
    },
    {
      "inputs": [
        {
          "internalType": "uint256",
          "name": "",
          "type": "uint256"
        }
      ],
      "name": "allPairs",
      "outputs": [
        {
          "internalType": "address",
          "name": "",
          "type": "address"
        }
      ],
      "stateMutability": "view",
      "type": "function"
    },
    {
      "inputs": [],
      "name": "allPairsLength",
      "outputs": [
        {
          "internalType": "uint256",
          "name": "",
          "type": "uint256"
        }
      ],
      "stateMutability": "view",
      "type": "function"
    },
    {
      "inputs": [
        {
          "internalType": "address",
          "name": "tokenA",
          "type": "address"
        },
        {
          "internalType": "address",
          "name": "tokenB",
          "type": "address"
        },
        {
          "internalType": "address",
          "name": "priceScanner",
          "type": "address"
        }
      ],
      "name": "createPair",
      "outputs": [
        {
          "internalType": "address",
          "name": "pair",
          "type": "address"
        }
      ],
      "stateMutability": "nonpayable",
      "type": "function"
    },
    {
      "inputs": [
        {
          "internalType": "address",
          "name": "",
          "type": "address"
        },
        {
          "internalType": "address",
          "name": "",
          "type": "address"
        }
      ],
      "name": "getPair",
      "outputs": [
        {
          "internalType": "address",
          "name": "",
          "type": "address"
        }
      ],
      "stateMutability": "view",
      "type": "function"
    }
  ],
  "bytecode": "0x60808060405234601557615ecc908161001a8239f35b5f80fdfe60806040526004361015610011575f80fd5b5f5f3560e01c80631e3dd18b14610319578063574f2ba3146102fc57806376f797381461009d5763e6a4390514610046575f80fd5b3461009a57604036600319011261009a576040610061610387565b9161006a61039d565b6001600160a01b0393841682526020828152929091209083165f9081529082526040908190205490519216825290f35b80fd5b50346102de5760603660031901126102de576100b7610387565b6100bf61039d565b906044356001600160a01b03811691908290036102de576001600160a01b038381169082168082146102de5710156102f65791905b6001600160a01b0383169283156102de575f848152602081815260408083206001600160a01b038781168552925290912054166102de576040516001600160601b0319606092831b8116602083019081529285901b166034820152602881526001600160a01b039093169261016a6048826103b3565b5190209060405190615aea80830183811067ffffffffffffffff8211176102e25760209284926103d6843981520301905ff580156102d3576001600160a01b03169182156102de57823b156102de5760405163485cc95560e01b81528160048201528260248201525f8160448183885af180156102d3576102be575b50808452602084815260408086205f85815290835281812080546001600160a01b0388166001600160a01b03199182168117909255868952888552838920868452909452919020805490921617905560015493600160401b8510156102aa57506102588460016020960160015561035b565b81549060031b9085821b9160018060a01b03901b19161790557f0d3648bd0f6ba80134a33ba9275ac585d9d315f0ad8355cddefde31afa28d0e9604060015481519086825287820152a3604051908152f35b634e487b7160e01b81526041600452602490fd5b6102cb9194505f906103b3565b5f925f6101e6565b6040513d5f823e3d90fd5b5f80fd5b634e487b7160e01b5f52604160045260245ffd5b906100f4565b346102de575f3660031901126102de576020600154604051908152f35b346102de5760203660031901126102de576004356001548110156102de5761034260209161035b565b905460405160039290921b1c6001600160a01b03168152f35b6001548110156103735760015f5260205f2001905f90565b634e487b7160e01b5f52603260045260245ffd5b600435906001600160a01b03821682036102de57565b602435906001600160a01b03821682036102de57565b90601f8019910116810190811067ffffffffffffffff8211176102e25760405256fe60e0806040523461041057602081615aea803803809161001f82856106dc565b83398101031261041057516001600160a01b03811690819003610410576040519061004b6040836106dc565b600f82526e2634b8bab4b234ba3c902a37b5b2b760891b6020830152604051906100766040836106dc565b60048252632820a4a960e11b6020830152604051906100966020836106dc565b5f825283516001600160401b0381116104f757600354600181811c911680156106b7575b60208210146104d957601f8111610654575b50602094601f82116001146105f1579481929394955f926105e6575b50508160011b915f199060031b1c1916176003555b82516001600160401b0381116104f757600454600181811c911680156105dc575b60208210146104d957601f8111610579575b506020601f821160011461051657819293945f9261050b575b50508160011b915f199060031b1c1916176004555b81516001600160401b0381116104f757600554600181811c911680156104ed575b60208210146104d957601f8111610493575b50602092601f821160011461043257928192935f92610427575b50508160011b915f199060031b1c1916176005555b5f60606040516101cf816106c1565b8281528260208201528260408201520152731364cbbf2cdf5032c47d8226a6f6fbd2afcdacac6060604051610203816106c1565b73687820221192c5b662b25367f70076a37bc79b6c80825273848b0066793bcc60346da1f49049357399b8d595602080840182905273a02cda4ca3a71d7c46997716f4283aa851c28812604080860182905295909401959095525f516020615aca5f395f51905f5280546001600160a01b031990811690931790557f9e7b61f58c47dc699ac88507c4f5bb9f121c03808c5676a8078fe583e464970180548316821790557f9e7b61f58c47dc699ac88507c4f5bb9f121c03808c5676a8078fe583e4649702805483169093179092557f9e7b61f58c47dc699ac88507c4f5bb9f121c03808c5676a8078fe583e464970380548216731364cbbf2cdf5032c47d8226a6f6fbd2afcdacac179055600c80546001600160a81b0319163360081b610100600160a81b0316179055600d80549091169490941790935551639cd07acb60e01b81525f6004820181905260056024830152909283916044918391905af190811561041c575f916103e6575b50608052620f424060a0526305f5e10060c05261039660805180601255806013556106ff565b506103a26013546106ff565b5060405161536c908161075e823960805181505060a05181818161020b015281816123e20152613552015260c05181818161099b0152818161226101526133530152f35b90506020813d602011610414575b81610401602093836106dc565b8101031261041057515f610370565b5f80fd5b3d91506103f4565b6040513d5f823e3d90fd5b015190505f806101ab565b601f1982169360055f52805f20915f5b86811061047b5750836001959610610463575b505050811b016005556101c0565b01515f1960f88460031b161c191690555f8080610455565b91926020600181928685015181550194019201610442565b60055f5260205f20601f830160051c810191602084106104cf575b601f0160051c01905b8181106104c45750610191565b5f81556001016104b7565b90915081906104ae565b634e487b7160e01b5f52602260045260245ffd5b90607f169061017f565b634e487b7160e01b5f52604160045260245ffd5b015190505f80610149565b601f1982169060045f52805f20915f5b81811061056157509583600195969710610549575b505050811b0160045561015e565b01515f1960f88460031b161c191690555f808061053b565b9192602060018192868b015181550194019201610526565b60045f527f8a35acfbc15ff81a39ae7d344fd709f28e8600b4aa8c65c6b64bfe7fe36bd19b601f830160051c810191602084106105d2575b601f0160051c01905b8181106105c75750610130565b5f81556001016105ba565b90915081906105b1565b90607f169061011e565b015190505f806100e8565b601f1982169560035f52805f20915f5b88811061063c57508360019596979810610624575b505050811b016003556100fd565b01515f1960f88460031b161c191690555f8080610616565b91926020600181928685015181550194019201610601565b60035f527fc2575a0e9e593c00f959f8c92f12db2869c3395a3b0502d05e2516446f71f85b601f830160051c810191602084106106ad575b601f0160051c01905b8181106106a257506100cc565b5f8155600101610695565b909150819061068c565b90607f16906100ba565b608081019081106001600160401b038211176104f757604052565b601f909101601f19168101906001600160401b038211908210176104f757604052565b5f516020615aca5f395f51905f52546001600160a01b0316803b15610410575f8091604460405180948193635ca4b5b160e11b83528760048401523060248401525af1801561041c57610750575090565b5f61075a916106dc565b9056fe6080806040526004361015610012575f80fd5b5f905f3560e01c90816306fdde03146125a3575080630a56d33c146123735780630d8dfe7b146122855780631d1d1d281461224257806325225a7114611fbc5780632fb74e6214611f71578063313ce56714611f56578063344ff10114611f1f57806334c4574314611e235780633be9e6e514611db55780633c130d9014611cf8578063485cc95514611c655780634aa12aa014611c3c578063537d3c5014611be45780635409522714611bc65780635bebed7e14611b8e578063688350bd14611b4b578063714c9e5714611afd57806378aeaafd14611a575780637f8ae0e7146119f25780637ff36fbe146119c957806395d89b41146118b857806397d0f0101461163757806398883d18146115215780639a751347146114255780639d9d2e17146113b7578063a573a9f614611338578063b5de610614610fc8578063b6363cf214610f91578063b9fe7c1c1461083a578063c45a01551461080d578063c535803c146107b9578063c7b8a75e14610746578063c9dec8dc14610721578063d4febb961461068f578063d7cb416f14610666578063da1f12ab14610649578063dc3038ac146103e4578063de64211914610365578063e064b9bb1461026a578063eb3155b5146102325763ed3437f8146101ec575f80fd5b3461022f578060031936011261022f5760206040516001600160401b037f0000000000000000000000000000000000000000000000000000000000000000168152f35b80fd5b503461022f57606036600319011261022f5760206102626102516127bf565b6102596127a9565b604435916129a7565b604051908152f35b503461022f57608036600319011261022f576102846127bf565b61028c6127a9565b90606435916001600160401b038311610361576102d96102d16102b66102df9536906004016127eb565b6102ca33876102c5338261295b565b61287d565b3691612708565b60443561362b565b91613794565b5f5160206153205f395f51905f52546001600160a01b0316803b1561035d57826040518092630f8e573b60e21b825281838161031f3389600484016128f1565b03925af1801561035257610339575b602082604051908152f35b6103448380926126b8565b61034e578161032e565b5080fd5b6040513d85823e3d90fd5b8280fd5b8380fd5b503461022f57608036600319011261022f5761037f6127bf565b6044356001600160401b03811161035d5761039e9036906004016127eb565b606435926001600160401b0384116103e0576103d96103d16103c76102df9636906004016127eb565b9590943691612708565b60243561362b565b90336137c7565b8480fd5b503461022f576103f33661275c565b826016540361063a5761043d8261042e7fe647dc2c1eab2bb66270ff4a61fff662a1c56f03607215f3f2529399b868b4dc9360c09587612a30565b602080825183010191016128d0565b848694929452600860205260408620549085875260086020526104af6104a4600160408a20015492888a5260086020526104a96104a48b6004604060018060a01b039220015416998b8d5260086020528c6005604060018060a01b03922001541697613884565b614781565b93613884565b906104ba30826140b8565b6104c430836140b8565b6104cf828285612f5a565b868852600960205260408820558587526009602052600160408820015584865260086020526105058460026040892001546140b8565b848652600860205261051e8460036040892001546140b8565b84865260096020526105348460408820546140b8565b848652600960205261054d8460016040892001546140b8565b84865260086020526105663060026040892001546140b8565b848652600860205261057f3060036040892001546140b8565b84865260096020526105953060408820546140b8565b84865260096020526105ae3060016040892001546140b8565b848652600860205260026040872001549085875260086020526003604088200154868852600960205260408820548789526009602052600160408a2001549160405194888652602086015260408501526060840152608083015260a0820152a15f6016555f6017555f6018558252600a602052604082209082526020525f600160408320828155015580f35b633433e69960e21b8452600484fd5b503461022f578060031936011261022f5760206040516127118152f35b503461022f578060031936011261022f57600f546040516001600160a01b039091168152602090f35b503461022f57604036600319011261022f576106a96127bf565b6024359065ffffffffffff821680920361035d57338084526001602090815260408086206001600160a01b03949094165f81815294835293819020805465ffffffffffff19168617905551938452919290917f921a218a75d18e8ec5704851e6b234a85725b21a2521ce889622c35dedc1fa1291a380f35b503461022f578060031936011261022f57604060145460155482519182526020820152f35b503461022f57608036600319011261022f576107606127bf565b6107686127a9565b606435916044356001600160401b0384116103e05761078e6102df9436906004016127eb565b9390926107a533846107a033826140fb565b6128aa565b6107b433826102c5338261295b565b6137c7565b503461022f57602036600319011261022f576108096004356107e033826107a033826140fb565b604051906107ef6040836126b8565b60018252602036818401376108038261290a565b52614d9e565b5080f35b503461022f578060031936011261022f57600c5460405160089190911c6001600160a01b03168152602090f35b503461022f57608036600319011261022f576064356001600160401b03811161034e57906108926108726103d19336906004016127eb565b939061088a610882368784612708565b60043561362b565b943691612708565b600e545f5160206153205f395f51905f52546001600160a01b039081169116813b15610361576108dc84928392604051948580948193630f8e573b60e21b83528b600484016128f1565b03925af1801561035257908391610f7c575b5050600f545f5160206153205f395f51905f52546001600160a01b039081169116813b156103615761093a84928392604051948580948193630f8e573b60e21b835289600484016128f1565b03925af1801561035257908391610f67575b5050604435421015610f585760ff6017541680610f2d575b610efa57819260ff600c5416155f14610c46576109876109c49260609233614452565b604051630302e8fb60e21b815293849283927f00000000000000000000000000000000000000000000000000000000000000009160048501613c3c565b038173__$17ea0f45663d80b7ef38b5f09fba8482e6$__5af48015610c3b57829183908492610bf7575b50600e545f5160206153205f395f51905f52546001600160a01b039182169116803b15610bde57604051630f8e573b60e21b81529186918391829084908290610a3b9089600484016128f1565b03925af1908115610bd3578591610be2575b5050600f545f5160206153205f395f51905f52546001600160a01b039182169116803b15610bde57604051630f8e573b60e21b81529186918391829084908290610a9b908a600484016128f1565b03925af1908115610bd3578591610bb9575b50601054604051632df5f6bf60e11b81529260209284926001600160a01b0316918391908290610ae1903360048401612b7e565b03925af18015610bae57610b78575b50601154604051632df5f6bf60e11b81529360209285926001600160a01b03169183918290610b23903360048401612b7e565b03925af1801561035257610b41575b610b3e9150339061331c565b80f35b6020823d602011610b70575b81610b5a602093836126b8565b81010312610b6c57610b3e9150610b32565b5f80fd5b3d9150610b4d565b92506020833d602011610ba6575b81610b93602093836126b8565b81010312610b6c57839250610b23610af0565b3d9150610b86565b6040513d86823e3d90fd5b81610bc3916126b8565b610bce57835f610aad565b505050fd5b6040513d87823e3d90fd5b8580fd5b81610bec916126b8565b610bce57835f610a4d565b925050506060813d606011610c33575b81610c14606093836126b8565b81010312610c305780516040602083015192015190915f6109ee565b50fd5b3d9150610c07565b6040513d84823e3d90fd5b610c51925033614188565b610c5c600254614732565b6012549060135460405192636b0e9ec560e11b845260048401526024830152604482015260808160648173__$17ea0f45663d80b7ef38b5f09fba8482e6$__5af4918215610bae575f5160206152405f395f51905f5293610eb893868788958993610ebe575b5090610d169160405191610cd760a0846126b8565b600483526080366020850137610cec8361290a565b52610cf68261292b565b52601454610d038261293b565b52601554610d108261294b565b526149e4565b938488526006602052826040892055848852600660205283600160408a200155848852600660205260026040892001558387526006602052600360408820015582865260066020526004604087200160018060a01b03331660018060a01b03198254161790558286526006602052610d93604087205430906140b8565b8286526006602052610dac3060016040892001546140b8565b8286526006602052610dc53060026040892001546140b8565b8286526006602052610dde3060036040892001546140b8565b8260165542601855600160ff196017541617601755338652600a602052604086208387526020526040862055338552600a602052604085208286526020526001604086200155338452600a60205260408420818552602052610e443060408620546140b8565b338452600a60205260408420818552602052610e673060016040872001546140b8565b338452600a60205260408420818552602052610e873360408620546140b8565b338452600a60205260408420818552602052610eaa3360016040872001546140b8565b60405191829143338461285f565b0390a180f35b915050610d169450610ee8915060803d608011610ef3575b610ee081836126b8565b810190613722565b909590929190610cc2565b503d610ed6565b60248260185461012c8101809111610f1b57632f3cd79160e21b8252600452fd5b50634e487b7160e01b81526011600452fd5b5060185461012c8101809111610f44574210610964565b634e487b7160e01b83526011600452602483fd5b630407b05b60e31b8252600482fd5b81610f71916126b8565b61034e57815f61094c565b81610f86916126b8565b61034e57815f6108ee565b503461022f57604036600319011261022f576020610fbe610fb06127bf565b610fb86127a9565b9061295b565b6040519015158152f35b503461022f5760a036600319011261022f57610fe26127d5565b608435906001600160401b03821161035d576110086108726103d19336906004016127eb565b600e545f5160206153205f395f51905f525491929185916001600160a01b039081169116803b1561035d57604051630f8e573b60e21b81529183918391829084908290611059908c600484016128f1565b03925af18015610c3b57611323575b50600f545f5160206153205f395f51905f52546001600160a01b039182169116803b1561035d57604051630f8e573b60e21b815291839183918290849082906110b5908b600484016128f1565b03925af18015610c3b5761130e575b50506064354210156112ff5760ff60175416806112d4575b6112b357611116906110ef838533614452565b916080601254601354906040519687928392632c9b43ad60e21b8452888860048601613744565b038173__$17ea0f45663d80b7ef38b5f09fba8482e6$__5af49485156112a8575f5160206152405f395f51905f5296610eb89689968a918b918c9161127c575b5090611190916040519161116b6060846126b8565b6002835260403660208501376111808361290a565b5261118a8261292b565b52614bc1565b96878b52600860205260408b2055868a526008602052600160408b2001558589526008602052600260408a2001558488526008602052600360408920015583875260086020526004604088200160018060a01b03331660018060a01b03198254161790558387526008602052600560408820019060018060a01b031660018060a01b03198254161790558286526008602052611231604087205430906140b8565b828652600860205261124a3060016040892001546140b8565b82865260086020526112633060026040892001546140b8565b8286526008602052610dde3060036040892001546140b8565b915050611190975061129d915060803d608011610ef357610ee081836126b8565b909298919291611156565b6040513d89823e3d90fd5b60248460185461012c8101809111610f1b57632f3cd79160e21b8252600452fd5b5060185461012c81018091116112eb5742106110dc565b634e487b7160e01b85526011600452602485fd5b630407b05b60e31b8452600484fd5b81611318916126b8565b61036157835f6110c4565b8161132d916126b8565b61036157835f611068565b503461022f5761135461134a3661275c565b8183949293612a30565b60208180518101031261035d5760200151906001600160401b03821680920361035d5760206113ab6113a67f83bbbc07896439e5d950a6cead04cbc676180af7a61cecf43f5296475057f57193613979565b61290a565b5192604051908152a280f35b503461022f57608036600319011261022f576004356024356113d76127d5565b600e545f5160206153205f395f51905f525485916001600160a01b039081169116803b1561035d57604051630f8e573b60e21b81529183918391829084908290611059908c600484016128f1565b503461022f57602036600319011261022f57600435338252600a602052604082208183526020526040822054158015611500575b6114f157610eb85f5160206152e05f395f51905f5291338452600a602052604084208185526020526114aa6040852054338652600a6020526040862083875260205260016040872001549033612f5a565b60165481146114e0575b338452600a602052604084208185526020525f600160408620828155015560405191829143338461285f565b5f6016555f6017555f6018556114b4565b63c6dfc20160e01b8252600482fd5b50338252600a60205260408220818352602052600160408320015415611459565b503461022f576115303661275c565b826016540361063a576115cc61154f8361042e6115dd94889688612a30565b858593929352600760205260408520549286865260076020526115c66104a460016040892001549389895260076020526104a96104a4600260408c200154958c8c5260076020528c8c6003604060018060a01b0392200154169c5260076020528d6004604060018060a01b03922001541697613884565b91612f5a565b6115d7301515613760565b30613c5d565b507f3dbaca5d4554979be94eae55db85f4a40d3b96dd626d153692dc87db3347de4e6040518061160e8443836128f1565b0390a15f6016555f6017555f6018558252600b6020526040822090825260205280604081205580f35b503461022f57606036600319011261022f576116516127a9565b604435421015610f585760ff60175416806118a1575b610efa5730825281602052611699604083205461168760043530336129a7565b50308452836020526040842054613a4f565b8060806116a7600254614732565b6012546116cc601354926040519586948594634aac572360e01b865260048601613744565b038173__$17ea0f45663d80b7ef38b5f09fba8482e6$__5af4918215610bae575f5160206152405f395f51905f5293610eb8938693879188918991611875575b509061174691604051916117216060846126b8565b6002835260403660208501376117368361290a565b526117408261292b565b526147d0565b938488526007602052836040892055848852600760205260016040892001558387526007602052600260408820015582865260076020526003604087200160018060a01b03331660018060a01b03198254161790558286526007602052600460408720019060018060a01b031660018060a01b031982541617905581855260076020526117d73060408720546140b8565b81855260076020526117f03060016040882001546140b8565b81855260076020526118093060026040882001546140b8565b8160165542601855600160ff196017541617601755338552600b602052604085208286526020526040852055338452600b602052604084208185526020526118553060408620546140b8565b338452600b60205260408420818552602052610eaa3360408620546140b8565b9150506117469450611896915060803d608011610ef357610ee081836126b8565b90929591929161170c565b5060185461012c8101809111610f44574210611667565b503461022f578060031936011261022f576040519080600454908160011c916001811680156119bf575b6020841081146119ab578386529081156119845750600114611927575b6119238461190f818603826126b8565b604051918291602083526020830190612694565b0390f35b600481527f8a35acfbc15ff81a39ae7d344fd709f28e8600b4aa8c65c6b64bfe7fe36bd19b939250905b80821061196a5750909150810160200161190f826118ff565b919260018160209254838588010152019101909291611951565b60ff191660208087019190915292151560051b8501909201925061190f91508390506118ff565b634e487b7160e01b83526022600452602483fd5b92607f16926118e2565b503461022f578060031936011261022f57600e546040516001600160a01b039091168152602090f35b503461022f57606036600319011261022f57600e545f5160206153205f395f51905f52546004359291602435916001600160a01b039081169116813b15610361576108dc84928392604051948580948193630f8e573b60e21b83528b600484016128f1565b503461022f57602036600319011261022f57600435338252600b602052604082208183526020526040822054156114f157610eb85f5160206152e05f395f51905f5291338452600b60205260408420818552602052611abb60408520543330613794565b506016548114611aec575b338452600b6020526040842081855260205283604081205560405191829143338461285f565b5f6016555f6017555f601855611ac6565b503461022f57604036600319011261022f5760409081906001600160a01b03611b246127bf565b168152600a6020528181206024358252602052206001815491015482519182526020820152f35b503461022f57604036600319011261022f576020906040906001600160a01b03611b736127bf565b168152600b8352818120602435825283522054604051908152f35b503461022f57604036600319011261022f576020610262611bad6127bf565b60243590611bc033836107a033826140fb565b33613794565b503461022f578060031936011261022f576020600254604051908152f35b503461022f57606036600319011261022f57611bfe6127bf565b602435604435916001600160401b03831161036157611c246102df9336906004016127eb565b929091611c3633836107a033826140fb565b336137c7565b503461022f578060031936011261022f57600d546040516001600160a01b039091168152602090f35b503461022f57604036600319011261022f57611c7f6127bf565b611c876127a9565b600c5490919060081c6001600160a01b03163303611ce957601080546001600160a01b039283166001600160a01b0319918216811790925560118054949093169381168417909255600e805483169091179055600f8054909116909117905580f35b631dd2188d60e31b8352600483fd5b503461022f578060031936011261022f576040519080600554908160011c91600181168015611dab575b6020841081146119ab578386529081156119845750600114611d4e576119238461190f818603826126b8565b600581527f036b6384b5eca791c62761152d0c79bb0604c104a5fb6f4eb0703f3154bb3db0939250905b808210611d915750909150810160200161190f826118ff565b919260018160209254838588010152019101909291611d78565b92607f1692611d22565b503461022f578060031936011261022f57611dd360145433906140b8565b611ddf336015546140b8565b7f868bf4fd9f135f4e57da23cef8eff49215987aedfe6d915ba6f0d7036c28720960806014546015546040519143835233602084015260408301526060820152a180f35b34610b6c5760a0366003190112610b6c57611e3c6127bf565b611e446127a9565b906064356001600160401b038111610b6c57611e649036906004016127eb565b9091608435936001600160401b038511610b6c57611ea16102d1611e8f611ea79736906004016127eb565b9690956102ca33876102c5338261295b565b916137c7565b5f5160206153205f395f51905f52546001600160a01b031690813b15610b6c575f6040518093630f8e573b60e21b8252818381611ee83388600484016128f1565b03925af1918215611f1457602092611f04575b50604051908152f35b5f611f0e916126b8565b5f611efb565b6040513d5f823e3d90fd5b34610b6c576020366003190112610b6c576001600160a01b03611f406127bf565b165f525f602052602060405f2054604051908152f35b34610b6c575f366003190112610b6c57602060405160068152f35b34610b6c576060366003190112610b6c57611f8a6127bf565b6044356001600160401b038111610b6c57602091611fb56103d16102ca6102629436906004016127eb565b9033613794565b34610b6c576080366003190112610b6c57611fd56127a9565b6064356001600160401b038111610b6c576108826102ca611ffa9236906004016127eb565b6044354210156122335760ff601754168061221c575b6121e75761204190305f525f60205261202f60405f20549130336129a7565b50305f525f60205260405f2054613a4f565b80608061204f600254614732565b601254612074601354926040519586948594634aac572360e01b865260048601613744565b038173__$17ea0f45663d80b7ef38b5f09fba8482e6$__5af4918215611f14575f5160206152405f395f51905f52936121b6935f935f915f915f916121bb575b50906120c991604051916117216060846126b8565b5f818152600760205260409020848155600181019590955560028501919091556003840180546001600160a01b03199081163317909155600490940180549094166001600160a01b03929092169190911790925561212730826140b8565b815f52600760205261214030600160405f2001546140b8565b815f52600760205261215930600260405f2001546140b8565b6016829055426018556017805460ff19166001179055335f908152600b6020908152604080832085845290915290208190556121969030906140b8565b335f52600b60205260405f20815f52602052610eaa3360405f20546140b8565b0390a1005b9150506120c994506121dc915060803d608011610ef357610ee081836126b8565b9092959192916120b4565b60185461012c810180911161220857632f3cd79160e21b5f5260045260245ffd5b634e487b7160e01b5f52601160045260245ffd5b5060185461012c8101809111612208574210612010565b630407b05b60e31b5f5260045ffd5b34610b6c575f366003190112610b6c5760206040516001600160401b037f0000000000000000000000000000000000000000000000000000000000000000168152f35b34610b6c576020366003190112610b6c57600435335f52600a60205260405f20815f5260205260405f2054158015612352575b61234357335f818152600a60209081526040808320858452909152902080546001909101545f5160206152e05f395f51905f52936121b69390926122fc9291612b99565b6016548114612332575b335f52600a60205260405f20815f526020525f600160408220828155015560405191829143338461285f565b5f6016555f6017555f601855612306565b63c6dfc20160e01b5f5260045ffd5b50335f52600a60205260405f20815f52602052600160405f200154156122b8565b34610b6c576123813661275c565b826016540361259457612395908284612a30565b608081805181010312610b6c576123ae60208201612818565b906123bb60408201612818565b906123d460806123cd60608401612818565b9201612818565b906124266001600160401b037f000000000000000000000000000000000000000000000000000000000000000016926124208461241a612414828561282c565b8661282c565b9461282c565b9061282c565b5f86815260066020526040908190208054600182015460028301546003840154600494850154955163dea9e18f60e01b8152948501939093526024840191909152604483015260648201526001600160801b03968716608482015294861660a486015291851660c485015290931660e48301526101048201526001600160a01b039091169060a0816101248173__$17ea0f45663d80b7ef38b5f09fba8482e6$__5af48015611f1457825f5f5f915f955f95612541575b5083612505936124f861251498946124fd9461250e98612b99565b61331c565b601254613463565b91601354613463565b90613516565b5f6016555f6017555f6018555f52600a60205260405f20905f526020525f60016040822082815501555f80f35b9550505050505060a0813d60a01161258c575b8161256160a093836126b8565b81010312610b6c5780516020820151604083015160608401516080909401519285929061250e6124dd565b3d9150612554565b633433e69960e21b5f5260045ffd5b34610b6c575f366003190112610b6c575f6003548060011c9060018116801561268a575b6020831081146126765782855290811561265257506001146125f4575b6119238361190f818503826126b8565b60035f9081527fc2575a0e9e593c00f959f8c92f12db2869c3395a3b0502d05e2516446f71f85b939250905b8082106126385750909150810160200161190f6125e4565b919260018160209254838588010152019101909291612620565b60ff191660208086019190915291151560051b8401909101915061190f90506125e4565b634e487b7160e01b5f52602260045260245ffd5b91607f16916125c7565b805180835260209291819084018484015e5f828201840152601f01601f1916010190565b90601f801991011681019081106001600160401b038211176126d957604052565b634e487b7160e01b5f52604160045260245ffd5b6001600160401b0381116126d957601f01601f191660200190565b929192612714826126ed565b9161272260405193846126b8565b829481845281830111610b6c578281602093845f960137010152565b9080601f83011215610b6c5781602061275993359101612708565b90565b6060600319820112610b6c57600435916024356001600160401b038111610b6c578261278a9160040161273e565b91604435906001600160401b038211610b6c576127599160040161273e565b602435906001600160a01b0382168203610b6c57565b600435906001600160a01b0382168203610b6c57565b604435906001600160a01b0382168203610b6c57565b9181601f84011215610b6c578235916001600160401b038311610b6c5760208381860195010111610b6c57565b51906001600160801b0382168203610b6c57565b6001600160801b0390911690811561284b576001600160801b03160490565b634e487b7160e01b5f52601260045260245ffd5b604091949392606082019560018060a01b0316825260208201520152565b15612886575050565b630f3e596760e31b5f9081526001600160a01b039182166004529116602452604490fd5b156128b3575050565b6367cfe80560e01b5f5260045260018060a01b031660245260445ffd5b9190826040910312610b6c5761275960206128ea84612818565b9301612818565b9081526001600160a01b03909116602082015260400190565b8051156129175760200190565b634e487b7160e01b5f52603260045260245ffd5b8051600110156129175760400190565b8051600210156129175760600190565b8051600310156129175760800190565b6001600160a01b0382811691169081149190821561297857505090565b9091505f52600160205260405f209060018060a01b03165f5260205265ffffffffffff60405f20541642111590565b906129d092916129bc33846107a033826140fb565b6129cb33826102c5338261295b565b613794565b5f5160206153205f395f51905f52549091906001600160a01b0316803b15610b6c575f6040518092630f8e573b60e21b8252818381612a13338a600484016128f1565b03925af18015611f1457612a245750565b5f612a2e916126b8565b565b9190612a3b83613979565b8151928360200193846020116122085760400180941161220857612ade5f60209493612a8b86808097612af09a60405199828b9351918291018585015e82019083820152030180885201866126b8565b612b0260018060a01b037f9e7b61f58c47dc699ac88507c4f5bb9f121c03808c5676a8078fe583e4649703541694604051988997889687956378542ead60e01b8752606060048801526064870190613a1c565b85810360031901602487015290612694565b83810360031901604485015290612694565b03925af1908115611f14575f91612b4f575b5015612b40577f1af0453083661051f6e56e5c070792320652e612154bf9af8637bb1e7655b99d5f80a2565b63cf6c44e960e01b5f5260045ffd5b612b71915060203d602011612b77575b612b6981836126b8565b810190613a04565b5f612b14565b503d612b5f565b6001600160a01b039091168152602081019190915260400190565b60105460405163344ff10160e01b815230600482015291935f9391602090849060249082906001600160a01b03165afa918215611f14575f92612f25575b60115460405163344ff10160e01b81523060048201529450602090859060249082906001600160a01b03165afa938415611f14575f94612ef1575b50600e545f5160206153205f395f51905f52546001600160a01b039182169116803b15610b6c57604051630f8e573b60e21b8152915f918391829084908290612c5f9089600484016128f1565b03925af18015611f1457612edc575b50600f545f5160206153205f395f51905f52546001600160a01b039081169116813b15612ed857612cb987928392604051948580948193630f8e573b60e21b83528a600484016128f1565b03925af18015612ecd57908691612eb8575b50601054604051632df5f6bf60e11b81529260209284926001600160a01b0316918391908290612cff908d60048401612b7e565b03925af18015610bd357612e85575b50601154604051632df5f6bf60e11b81529560209287926001600160a01b031691839188918391612d429160048401612b7e565b03925af1801561035257612e53575b60105460405163344ff10160e01b81523060048201529450602090859060249082906001600160a01b03165afa938415610352578394612e1f575b5060115460405163344ff10160e01b815230600482015290602090829060249082906001600160a01b03165afa938415612e135793612ddd575b50612dda93612dd491613a4f565b50613a4f565b50565b9092506020813d602011612e0b575b81612df9602093836126b8565b81010312610b6c575191612dda612dc6565b3d9150612dec565b604051903d90823e3d90fd5b9093506020813d602011612e4b575b81612e3b602093836126b8565b81010312610b6c5751925f612d8c565b3d9150612e2e565b6020843d602011612e7d575b81612e6c602093836126b8565b81010312610b6c5760249350612d51565b3d9150612e5f565b906020823d602011612eb0575b81612e9f602093836126b8565b81010312610b6c5790506020612d0e565b3d9150612e92565b81612ec2916126b8565b6103e057845f612ccb565b6040513d88823e3d90fd5b8680fd5b612ee99195505f906126b8565b5f935f612c6e565b9093506020813d602011612f1d575b81612f0d602093836126b8565b81010312610b6c5751925f612c12565b3d9150612f00565b91506020833d602011612f52575b81612f40602093836126b8565b81010312610b6c576024925191612bd7565b3d9150612f33565b60105460405163344ff10160e01b8152306004820152919391925f929091602090859060249082906001600160a01b03165afa918215611f14575f926132e7575b60115460405163344ff10160e01b81523060048201529550602090869060249082906001600160a01b03165afa948515611f14575f956132b3575b50600e545f5160206153205f395f51905f52546001600160a01b039182169116803b15610b6c57604051630f8e573b60e21b8152915f9183918290849082906130239089600484016128f1565b03925af18015611f145761329e575b50600f545f5160206153205f395f51905f52546001600160a01b039081169116813b15610bde5761307d86928392604051948580948193630f8e573b60e21b83528a600484016128f1565b03925af18015610bd357908591613289575b50601054604051632df5f6bf60e11b81529260209284926001600160a01b03169183919082906130c3908d60048401612b7e565b03925af18015610bae57613256575b50601154604051632df5f6bf60e11b81529560209287926001600160a01b0316918391879183916131069160048401612b7e565b03925af18015610c3b57613224575b60105460405163344ff10160e01b81523060048201529450602090859060249082906001600160a01b03165afa938415610c3b5782946131f0575b5060115460405163344ff10160e01b815230600482015290602090829060249082906001600160a01b03165afa928315612e1357926131ba575b506131a861250e926131a2612a2e966131b194613a4f565b94613a4f565b92601254613a4f565b91601354613a4f565b9091506020813d6020116131e8575b816131d6602093836126b8565b81010312610b6c5751906131a861318a565b3d91506131c9565b9093506020813d60201161321c575b8161320c602093836126b8565b81010312610b6c5751925f613150565b3d91506131ff565b6020843d60201161324e575b8161323d602093836126b8565b81010312610b6c5760249350613115565b3d9150613230565b906020823d602011613281575b81613270602093836126b8565b81010312610b6c57905060206130d2565b3d9150613263565b81613293916126b8565b61036157835f61308f565b6132ab9194505f906126b8565b5f925f613032565b9094506020813d6020116132df575b816132cf602093836126b8565b81010312610b6c5751935f612fd6565b3d91506132c2565b91506020843d602011613314575b81613302602093836126b8565b81010312610b6c576024935191612f9b565b3d91506132f5565b600c5460ff1661344157801561342d575b5f5160206152a05f395f51905f52546040516303056db360e31b815260048101929092527f00000000000000000000000000000000000000000000000000000000000000006001600160401b03166024830152600160f81b6044830152602090829060649082905f906001600160a01b03165af1908115611f14575f916133ee575b505f5160206152805f395f51905f52916133e9916133cd9082613ae4565b50600160ff19600c541617600c555b60405191829143836128f1565b0390a1565b90506020813d602011613425575b81613409602093836126b8565b81010312610b6c57515f5160206152805f395f51905f526133af565b3d91506133fc565b505f6020613439614f7b565b91505061332d565b8161345d6133e9925f5160206152805f395f51905f5294613ae4565b506133dc565b908115613506575b80156134f4575b602090606460018060a01b035f5160206152a05f395f51905f525416935f604051958694859363022f65e760e31b8552600485015260248401528160448401525af1908115611f14575f916134c5575090565b90506020813d6020116134ec575b816134e0602093836126b8565b81010312610b6c575190565b3d91506134d3565b5060206134ff614f7b565b9050613472565b9050613510614f7b565b9061346b565b613528918160125560135530906140b8565b613534306013546140b8565b61357b60406012546013548251938492839263a2baac7560e01b84527f00000000000000000000000000000000000000000000000000000000000000009160048501613c3c565b038173__$17ea0f45663d80b7ef38b5f09fba8482e6$__5af48015611f14575f905f906135f0575b6135b692508160145560155530906140b8565b6135c2306015546140b8565b6135d960145460018060a01b03600d5416906140b8565b612a2e60155460018060a01b03600d5416906140b8565b50506040813d604011613623575b8161360b604093836126b8565b81010312610b6c578060206135b692519101516135a3565b3d91506135fe565b61367a9160209160018060a01b035f5160206152a05f395f51905f525416905f60405180968195829463196d0b9b60e01b84526004840152336024840152608060448401526084830190612694565b6005606483015203925af1908115611f14575f916136f0575b505f5160206153205f395f51905f52546001600160a01b0316803b15610b6c575f6040518092630f8e573b60e21b82528183816136d43389600484016128f1565b03925af18015611f14576136e6575090565b5f612759916126b8565b90506020813d60201161371a575b8161370b602093836126b8565b81010312610b6c57515f613693565b3d91506136fe565b9190826080910312610b6c578151916020810151916060604083015192015190565b9094939260609260808301968352602083015260408201520152565b1561376757565b63ee457ebf60e01b5f525f60045260245ffd5b1561378157565b638d51880160e01b5f525f60045260245ffd5b6127599291906137ae6001600160a01b0382161515613760565b6137c26001600160a01b038316151561377a565b613dca565b936137d76137e192938487613794565b9384848733613f9a565b9060206137ec614f7b565b606460018060a01b035f5160206152a05f395f51905f525416945f6040519687948593637702dcff60e01b8552600485015260248401528860448401525af1918215611f14575f9261384e575b50906127599361384892613dca565b90613a4f565b91506020823d60201161387c575b81613869602093836126b8565b81010312610b6c57905190612759613839565b3d915061385c565b9081156138f2575b5f5160206152a05f395f51905f5254604051635a53accb60e01b815260048101939093526001600160801b039091166024830152600160f81b6044830152602090829060649082905f906001600160a01b03165af1908115611f14575f916134c5575090565b5f5160206152a05f395f51905f5254604051639cd07acb60e01b81525f60048201529192506001600160a01b0316816044815f602094600660248401525af18015611f14575f90613946575b91905061388c565b506020813d602011613971575b81613960602093836126b8565b81010312610b6c576020905161393e565b3d9150613953565b805f525f5160206152605f395f51905f5260205260405f2054156139f5575f525f5160206152605f395f51905f5260205260405f20604051808260208294549384815201905f5260205f20925f5b8181106139dc575050612759925003826126b8565b84548352600194850194869450602090930192016139c7565b63d66ca67560e01b5f5260045ffd5b90816020910312610b6c57518015158103610b6c5790565b90602080835192838152019201905f5b818110613a395750505090565b8251845260209384019390920191600101613a2c565b6020905f928115613ad4575b8015613ac6575b5f5160206152a05f395f51905f52546040516303056db360e31b8152600480820194909452848101909301919091526001600160f81b0319841660448301529092839160649183916001600160a01b03165af1908115611f14575f916134c5575090565b50613acf614f7b565b613a62565b9050613ade614f7b565b90613a5b565b6001600160a01b0381168015918215613afc8161377a565b6020613b0a86600254615140565b909690613b1730826140b8565b6002556064613b24614f7b565b5f5160206152a05f395f51905f5254604051637702dcff60e01b8152600481019a909a5260248a01939093526044890152879182905f906001600160a01b03165af1938415611f14575f94613c07575b939450849315613bcd57613b8a84600254613a4f565b613b9430826140b8565b6002555b613bbd575b50613ba830836140b8565b5f5f5160206152c05f395f51905f528180a490565b613bc790836140b8565b5f613b9d565b825f525f602052613be28460405f2054613463565b613bec30826140b8565b613bf683826140b8565b835f525f60205260405f2055613b98565b9350936020813d602011613c34575b81613c23602093836126b8565b81010312610b6c5751928490613b74565b3d9150613c16565b9160409194936001600160401b039160608501968552602085015216910152565b6001600160a01b03811680159392908415613d72576020613c8083600254615140565b939093613c8d30826140b8565b6002555b6064613c9b614f7b565b5f5160206152a05f395f51905f5254604051637702dcff60e01b8152600481019790975260248701939093526044860152849182905f906001600160a01b03165af1918215611f14575f92613d3e575b5081925f9295613cfd85600254613a4f565b613d0730826140b8565b60025515613d2e575b50613d1b30846140b8565b5f5160206152c05f395f51905f528280a4565b613d3890846140b8565b5f613d10565b91506020823d602011613d6a575b81613d59602093836126b8565b81010312610b6c575f915191613ceb565b3d9150613d4c565b805f525f60205260405f20548015613db757613d9083602092615017565b939093613d9d30826140b8565b613da786826140b8565b835f525f835260405f2055613c91565b506317fe473760e21b5f5260045260245ffd5b6001600160a01b03811680159493928515613f42576020613ded85600254615140565b959095613dfa30826140b8565b6002555b6064613e08614f7b565b5f5160206152a05f395f51905f5254604051637702dcff60e01b8152600481019990995260248901939093526044880152869182905f906001600160a01b03165af1938415611f14575f94613f0e575b50839560018060a01b03821693841591825f14613ed457613e7b87600254613a4f565b613e8530826140b8565b6002555b15613ec4575b5015613eb4575b50613ea130846140b8565b5f5160206152c05f395f51905f525f80a4565b613ebe90846140b8565b5f613e96565b613ece90866140b8565b5f613e8f565b855f525f602052613ee98760405f2054613463565b613ef330826140b8565b613efd85826140b8565b865f525f60205260405f2055613e89565b9093506020813d602011613f3a575b81613f2a602093836126b8565b81010312610b6c5751925f613e58565b3d9150613f1d565b815f525f60205260405f20548015613f8757613f6085602092615017565b959095613f6d30826140b8565b613f7786826140b8565b845f525f835260405f2055613dfe565b826317fe473760e21b5f5260045260245ffd5b939594929390929091803b156140a7576040516346083bfd60e01b81526001600160a01b0393841660048201529383166024850152604484019490945260806064840152608483018190529216939091602091839160a4918391908190838501375f838284010152601f801991011681010301815f875af15f9181614073575b5061406f57823d15614068573d614030816126ed565b9061403e60405192836126b8565b81523d5f602083013e5b805190816140635782638d51880160e01b5f5260045260245ffd5b602001fd5b6060614048565b9150565b9091506020813d60201161409f575b8161408f602093836126b8565b81010312610b6c5751905f61401a565b3d9150614082565b505050505090506127596001614fc9565b5f5160206153205f395f51905f52546001600160a01b031691823b15610b6c57612a13925f9283604051809681958294635ca4b5b160e11b8452600484016128f1565b5f5160206153205f395f51905f52546040516382027b6d60e01b81529260209284926001600160a01b0316918391829161413891600484016128f1565b03915afa908115611f14575f9161414d575090565b612759915060203d602011612b7757612b6981836126b8565b6001600160a01b03918216815291166020820152604081019190915260600190565b60105460405163344ff10160e01b815230600482015294919391926001600160a01b0390911690602086602481855afa958615611f14575f96614417575b5060115460405163344ff10160e01b815230600482015293929190602090859060249082906001600160a01b03165afa938415611f14575f946143df575b5061422b5f9260209260405194858094819363eb3155b560e01b8352308d60048501614166565b03925af18015611f14576143ac575b5060115460405163eb3155b560e01b81529460209286926001600160a01b03169183915f91839161427091309060048501614166565b03925af18015611f145761437a575b60105460405163344ff10160e01b81523060048201529350602090849060249082906001600160a01b03165afa928315611f14575f93614345575b5060115460405163344ff10160e01b8152306004820152939490602090859060249082906001600160a01b03165afa938415611f14575f9461430d575b5061430790612759939495613a4f565b93613a4f565b909293506020813d60201161433d575b8161432a602093836126b8565b81010312610b6c575192916143076142f7565b3d915061431d565b92506020833d602011614372575b81614360602093836126b8565b81010312610b6c5760249251926142ba565b3d9150614353565b6020833d6020116143a4575b81614393602093836126b8565b81010312610b6c576024925061427f565b3d9150614386565b906020823d6020116143d7575b816143c6602093836126b8565b81010312610b6c579050602061423a565b3d91506143b9565b919093506020823d60201161440f575b816143fc602093836126b8565b81010312610b6c5790519261422b614204565b3d91506143ef565b92919095506020833d60201161444a575b81614435602093836126b8565b81010312610b6c5760249251959091926141c6565b3d9150614428565b60105460405163344ff10160e01b815230600482015294919391926001600160a01b0390911690602086602481855afa958615611f14575f966146f7575b5060115460405163344ff10160e01b815230600482015293929190602090859060249082906001600160a01b03165afa938415611f14575f946146bf575b506144f55f9260209260405194858094819363eb3155b560e01b8352308d60048501614166565b03925af18015611f145761468c575b5060115460405163eb3155b560e01b81529460209286926001600160a01b03169183915f91839161453a91309060048501614166565b03925af18015611f145761465a575b60105460405163344ff10160e01b81523060048201529350602090849060249082906001600160a01b03165afa928315611f14575f93614625575b5060115460405163344ff10160e01b8152306004820152939490602090859060249082906001600160a01b03165afa938415611f14575f946145ed575b50614307906145d1939495613a4f565b90612a2e6145e184601254613463565b61250e84601354613463565b909293506020813d60201161461d575b8161460a602093836126b8565b81010312610b6c575192916143076145c1565b3d91506145fd565b92506020833d602011614652575b81614640602093836126b8565b81010312610b6c576024925192614584565b3d9150614633565b6020833d602011614684575b81614673602093836126b8565b81010312610b6c5760249250614549565b3d9150614666565b906020823d6020116146b7575b816146a6602093836126b8565b81010312610b6c5790506020614504565b3d9150614699565b919093506020823d6020116146ef575b816146dc602093836126b8565b81010312610b6c579051926144f56144ce565b3d91506146cf565b92919095506020833d60201161472a575b81614715602093836126b8565b81010312610b6c576024925195909192614490565b3d9150614708565b5f5160206152a05f395f51905f52546040516307227b9160e21b815260048101929092526001600160a01b0316816044815f602094600660248401525af1908115611f14575f916134c5575090565b5f5160206152a05f395f51905f52546040516307227b9160e21b815260048101929092526001600160a01b0316816044815f602094600560248401525af1908115611f14575f916134c5575090565b5f5160206153405f395f51905f52545f5160206153205f395f51905f52549092915f916001600160a01b0316803b15610b6c575f6040518092637d6e912360e11b82526020600483015281838161482a6024820189613a1c565b03925af18015611f14576149cf575b505f5160206153005f395f51905f52546001600160a01b0316803b1561035d57826040518092633263b83b60e01b8252876004830152606060248301528183816148866064820189613a1c565b63131107a360e31b604483015203925af18015610352579083916149ba575b508490525f5160206152605f395f51905f5260205260408220546149ab578382525f5160206152605f395f51905f52602052604082208151916001600160401b03831161499757600160401b8311614997578154838355808410614971575b5060200190835260208320835b83811061495d57505050505f5160206153405f395f51905f5254905f19821461494957506001015f5160206153405f395f51905f5255565b634e487b7160e01b81526011600452602490fd5b600190602084519401938184015501614911565b828552836020862091820191015b81811061498c5750614904565b85815560010161497f565b634e487b7160e01b84526041600452602484fd5b633f06d22b60e01b8252600482fd5b816149c4916126b8565b61034e57815f6148a5565b6149dc9192505f906126b8565b5f905f614839565b5f5160206153405f395f51905f52545f5160206153205f395f51905f52549092915f916001600160a01b0316803b15610b6c575f6040518092637d6e912360e11b825260206004830152818381614a3e6024820189613a1c565b03925af18015611f1457614bac575b505f5160206153005f395f51905f52546001600160a01b0316803b1561035d57826040518092633263b83b60e01b825287600483015260606024830152818381614a9a6064820189613a1c565b630295b4cf60e21b604483015203925af1801561035257908391614b97575b508490525f5160206152605f395f51905f5260205260408220546149ab578382525f5160206152605f395f51905f52602052604082208151916001600160401b03831161499757600160401b8311614997578154838355808410614b71575b5060200190835260208320835b838110614b5d57505050505f5160206153405f395f51905f5254905f19821461494957506001015f5160206153405f395f51905f5255565b600190602084519401938184015501614b25565b828552836020862091820191015b818110614b8c5750614b18565b858155600101614b7f565b81614ba1916126b8565b61034e57815f614ab9565b614bb99192505f906126b8565b5f905f614a4d565b5f5160206153405f395f51905f52545f5160206153205f395f51905f52549092915f916001600160a01b0316803b15610b6c575f6040518092637d6e912360e11b825260206004830152818381614c1b6024820189613a1c565b03925af18015611f1457614d89575b505f5160206153005f395f51905f52546001600160a01b0316803b1561035d57826040518092633263b83b60e01b825287600483015260606024830152818381614c776064820189613a1c565b63370c0e2b60e21b604483015203925af1801561035257908391614d74575b508490525f5160206152605f395f51905f5260205260408220546149ab578382525f5160206152605f395f51905f52602052604082208151916001600160401b03831161499757600160401b8311614997578154838355808410614d4e575b5060200190835260208320835b838110614d3a57505050505f5160206153405f395f51905f5254905f19821461494957506001015f5160206153405f395f51905f5255565b600190602084519401938184015501614d02565b828552836020862091820191015b818110614d695750614cf5565b858155600101614d5c565b81614d7e916126b8565b61034e57815f614c96565b614d969192505f906126b8565b5f905f614c2a565b5f5160206153405f395f51905f52545f5160206153205f395f51905f52549092915f916001600160a01b0316803b15610b6c575f6040518092637d6e912360e11b825260206004830152818381614df86024820189613a1c565b03925af18015611f1457614f66575b505f5160206153005f395f51905f52546001600160a01b0316803b1561035d57826040518092633263b83b60e01b825287600483015260606024830152818381614e546064820189613a1c565b6352b9d4fb60e11b604483015203925af1801561035257908391614f51575b508490525f5160206152605f395f51905f5260205260408220546149ab578382525f5160206152605f395f51905f52602052604082208151916001600160401b03831161499757600160401b8311614997578154838355808410614f2b575b5060200190835260208320835b838110614f1757505050505f5160206153405f395f51905f5254905f19821461494957506001015f5160206153405f395f51905f5255565b600190602084519401938184015501614edf565b828552836020862091820191015b818110614f465750614ed2565b858155600101614f39565b81614f5b916126b8565b61034e57815f614e73565b614f739192505f906126b8565b5f905f614e07565b5f5160206152a05f395f51905f5254604051639cd07acb60e01b81525f6004820152906001600160a01b0316816044815f602094600560248401525af1908115611f14575f916134c5575090565b5f5160206152a05f395f51905f5254604051639cd07acb60e01b815260048101929092526001600160a01b0316816044815f6020948160248401525af1908115611f14575f916134c5575090565b9190918015806150895750602061503861503185846151bb565b9483613a4f565b91606460018060a01b035f5160206152a05f395f51905f525416935f6040519586948593637702dcff60e01b85528a6004860152602485015260448401525af1908115611f14575f916134c5575090565b9092801561513057839161511c575b602090606460018060a01b035f5160206152a05f395f51905f525416935f604051958694859363f77f3f1d60e01b8552600485015260248401528160448401525af1908115611f14575f916150ec57509190565b90506020813d602011615114575b81615107602093836126b8565b81010312610b6c57519190565b3d91506150fa565b90506020615128614f7b565b919050615098565b505061513c6001614fc9565b9190565b919082156151af576151529083613463565b602061515e84836151bb565b93606460018060a01b035f5160206152a05f395f51905f525416935f6040519586948593637702dcff60e01b85528a6004860152602485015260448401525af1908115611f14575f916134c5575090565b915061513c6001614fc9565b90811561522f575b801561521d575b602090606460018060a01b035f5160206152a05f395f51905f525416935f6040519586948593631391547f60e01b8552600485015260248401528160448401525af1908115611f14575f916134c5575090565b506020615228614f7b565b90506151ca565b9050615239614f7b565b906151c356fe40ac511e5e6ae27363fc6d4c6c8c3e3e2eabb050660665d7bfe6605005535b28878245876662ba28a480c5ea71726db859fb50222b0a3d7cbbc21cfa336faf0151dad7b997cf4e55c1c151acca1aa99bb4eef471f5bf521b38555f8b01e574769e7b61f58c47dc699ac88507c4f5bb9f121c03808c5676a8078fe583e464970167500e8d0ed826d2194f514dd0d8124f35648ab6e3fb5e6ed867134cffe661e973f04af9dcc582a923ec15d3eea990fe34adabfff2879e28d44572e01a54abb69e7b61f58c47dc699ac88507c4f5bb9f121c03808c5676a8078fe583e46497029e7b61f58c47dc699ac88507c4f5bb9f121c03808c5676a8078fe583e4649700878245876662ba28a480c5ea71726db859fb50222b0a3d7cbbc21cfa336faf00a164736f6c634300081b000a9e7b61f58c47dc699ac88507c4f5bb9f121c03808c5676a8078fe583e4649700a164736f6c634300081b000a",
  "linkReferences": {
    "contracts/CAMMPairLib.sol": {
      "CAMMPairLib": [
        {
          "length": 20,
          "start": 5398
        },
        {
          "length": 20,
          "start": 6102
        },
        {
          "length": 20,
          "start": 7272
        },
        {
          "length": 20,
          "start": 8734
        },
        {
          "length": 20,
          "start": 11206
        },
        {
          "length": 20,
          "start": 12290
        },
        {
          "length": 20,
          "start": 16589
        }
      ]
    }
  },
  "deployedLinkReferences": {
    "contracts/CAMMPairLib.sol": {
      "CAMMPairLib": [
        {
          "length": 20,
          "start": 5372
        },
        {
          "length": 20,
          "start": 6076
        },
        {
          "length": 20,
          "start": 7246
        },
        {
          "length": 20,
          "start": 8708
        },
        {
          "length": 20,
          "start": 11180
        },
        {
          "length": 20,
          "start": 12264
        },
        {
          "length": 20,
          "start": 16563
        }
      ]
    }
  }
}