{
  "_format": "hh-sol-artifact-1",
  "contractName": "ConfidentialToken",
  "sourceName": "contracts/testToken.sol",
  "abi": [
    {
      "inputs": [
        {
          "internalType": "string",
          "name": "name_",
          "type": "string"
        },
        {
          "internalType": "string",
          "name": "symbol_",
          "type": "string"
        }
      ],
      "stateMutability": "nonpayable",
      "type": "constructor"
    },
    {
      "inputs": [
        {
          "internalType": "uint256",
          "name": "requestId",
          "type": "uint256"
        }
      ],
      "name": "ConfidentialFungibleTokenInvalidGatewayRequest",
      "type": "error"
    },
    {
      "inputs": [
        {
          "internalType": "address",
          "name": "receiver",
          "type": "address"
        }
      ],
      "name": "ConfidentialFungibleTokenInvalidReceiver",
      "type": "error"
    },
    {
      "inputs": [
        {
          "internalType": "address",
          "name": "sender",
          "type": "address"
        }
      ],
      "name": "ConfidentialFungibleTokenInvalidSender",
      "type": "error"
    },
    {
      "inputs": [
        {
          "internalType": "address",
          "name": "caller",
          "type": "address"
        }
      ],
      "name": "ConfidentialFungibleTokenUnauthorizedCaller",
      "type": "error"
    },
    {
      "inputs": [
        {
          "internalType": "address",
          "name": "holder",
          "type": "address"
        },
        {
          "internalType": "address",
          "name": "spender",
          "type": "address"
        }
      ],
      "name": "ConfidentialFungibleTokenUnauthorizedSpender",
      "type": "error"
    },
    {
      "inputs": [
        {
          "internalType": "euint64",
          "name": "amount",
          "type": "bytes32"
        },
        {
          "internalType": "address",
          "name": "user",
          "type": "address"
        }
      ],
      "name": "ConfidentialFungibleTokenUnauthorizedUseOfEncryptedAmount",
      "type": "error"
    },
    {
      "inputs": [
        {
          "internalType": "address",
          "name": "holder",
          "type": "address"
        }
      ],
      "name": "ConfidentialFungibleTokenZeroBalance",
      "type": "error"
    },
    {
      "inputs": [],
      "name": "HandlesAlreadySavedForRequestID",
      "type": "error"
    },
    {
      "inputs": [],
      "name": "InvalidKMSSignatures",
      "type": "error"
    },
    {
      "inputs": [],
      "name": "NoHandleFoundForRequestID",
      "type": "error"
    },
    {
      "inputs": [],
      "name": "UnsupportedHandleType",
      "type": "error"
    },
    {
      "anonymous": false,
      "inputs": [
        {
          "indexed": true,
          "internalType": "euint64",
          "name": "encryptedAmount",
          "type": "bytes32"
        },
        {
          "indexed": false,
          "internalType": "uint64",
          "name": "amount",
          "type": "uint64"
        }
      ],
      "name": "AmountDisclosed",
      "type": "event"
    },
    {
      "anonymous": false,
      "inputs": [
        {
          "indexed": true,
          "internalType": "address",
          "name": "from",
          "type": "address"
        },
        {
          "indexed": true,
          "internalType": "address",
          "name": "to",
          "type": "address"
        },
        {
          "indexed": true,
          "internalType": "euint64",
          "name": "amount",
          "type": "bytes32"
        }
      ],
      "name": "ConfidentialTransfer",
      "type": "event"
    },
    {
      "anonymous": false,
      "inputs": [
        {
          "indexed": true,
          "internalType": "uint256",
          "name": "requestID",
          "type": "uint256"
        }
      ],
      "name": "DecryptionFulfilled",
      "type": "event"
    },
    {
      "anonymous": false,
      "inputs": [
        {
          "indexed": true,
          "internalType": "address",
          "name": "holder",
          "type": "address"
        },
        {
          "indexed": true,
          "internalType": "address",
          "name": "operator",
          "type": "address"
        },
        {
          "indexed": false,
          "internalType": "uint48",
          "name": "until",
          "type": "uint48"
        }
      ],
      "name": "OperatorSet",
      "type": "event"
    },
    {
      "inputs": [],
      "name": "airDrop",
      "outputs": [],
      "stateMutability": "nonpayable",
      "type": "function"
    },
    {
      "inputs": [
        {
          "internalType": "address",
          "name": "account",
          "type": "address"
        }
      ],
      "name": "confidentialBalanceOf",
      "outputs": [
        {
          "internalType": "euint64",
          "name": "",
          "type": "bytes32"
        }
      ],
      "stateMutability": "view",
      "type": "function"
    },
    {
      "inputs": [],
      "name": "confidentialTotalSupply",
      "outputs": [
        {
          "internalType": "euint64",
          "name": "",
          "type": "bytes32"
        }
      ],
      "stateMutability": "view",
      "type": "function"
    },
    {
      "inputs": [
        {
          "internalType": "address",
          "name": "to",
          "type": "address"
        },
        {
          "internalType": "externalEuint64",
          "name": "encryptedAmount",
          "type": "bytes32"
        },
        {
          "internalType": "bytes",
          "name": "inputProof",
          "type": "bytes"
        }
      ],
      "name": "confidentialTransfer",
      "outputs": [
        {
          "internalType": "euint64",
          "name": "",
          "type": "bytes32"
        }
      ],
      "stateMutability": "nonpayable",
      "type": "function"
    },
    {
      "inputs": [
        {
          "internalType": "address",
          "name": "to",
          "type": "address"
        },
        {
          "internalType": "euint64",
          "name": "amount",
          "type": "bytes32"
        }
      ],
      "name": "confidentialTransfer",
      "outputs": [
        {
          "internalType": "euint64",
          "name": "",
          "type": "bytes32"
        }
      ],
      "stateMutability": "nonpayable",
      "type": "function"
    },
    {
      "inputs": [
        {
          "internalType": "address",
          "name": "to",
          "type": "address"
        },
        {
          "internalType": "euint64",
          "name": "amount",
          "type": "bytes32"
        },
        {
          "internalType": "bytes",
          "name": "data",
          "type": "bytes"
        }
      ],
      "name": "confidentialTransferAndCall",
      "outputs": [
        {
          "internalType": "euint64",
          "name": "transferred",
          "type": "bytes32"
        }
      ],
      "stateMutability": "nonpayable",
      "type": "function"
    },
    {
      "inputs": [
        {
          "internalType": "address",
          "name": "to",
          "type": "address"
        },
        {
          "internalType": "externalEuint64",
          "name": "encryptedAmount",
          "type": "bytes32"
        },
        {
          "internalType": "bytes",
          "name": "inputProof",
          "type": "bytes"
        },
        {
          "internalType": "bytes",
          "name": "data",
          "type": "bytes"
        }
      ],
      "name": "confidentialTransferAndCall",
      "outputs": [
        {
          "internalType": "euint64",
          "name": "transferred",
          "type": "bytes32"
        }
      ],
      "stateMutability": "nonpayable",
      "type": "function"
    },
    {
      "inputs": [
        {
          "internalType": "address",
          "name": "from",
          "type": "address"
        },
        {
          "internalType": "address",
          "name": "to",
          "type": "address"
        },
        {
          "internalType": "externalEuint64",
          "name": "encryptedAmount",
          "type": "bytes32"
        },
        {
          "internalType": "bytes",
          "name": "inputProof",
          "type": "bytes"
        }
      ],
      "name": "confidentialTransferFrom",
      "outputs": [
        {
          "internalType": "euint64",
          "name": "transferred",
          "type": "bytes32"
        }
      ],
      "stateMutability": "nonpayable",
      "type": "function"
    },
    {
      "inputs": [
        {
          "internalType": "address",
          "name": "from",
          "type": "address"
        },
        {
          "internalType": "address",
          "name": "to",
          "type": "address"
        },
        {
          "internalType": "euint64",
          "name": "amount",
          "type": "bytes32"
        }
      ],
      "name": "confidentialTransferFrom",
      "outputs": [
        {
          "internalType": "euint64",
          "name": "transferred",
          "type": "bytes32"
        }
      ],
      "stateMutability": "nonpayable",
      "type": "function"
    },
    {
      "inputs": [
        {
          "internalType": "address",
          "name": "from",
          "type": "address"
        },
        {
          "internalType": "address",
          "name": "to",
          "type": "address"
        },
        {
          "internalType": "externalEuint64",
          "name": "encryptedAmount",
          "type": "bytes32"
        },
        {
          "internalType": "bytes",
          "name": "inputProof",
          "type": "bytes"
        },
        {
          "internalType": "bytes",
          "name": "data",
          "type": "bytes"
        }
      ],
      "name": "confidentialTransferFromAndCall",
      "outputs": [
        {
          "internalType": "euint64",
          "name": "transferred",
          "type": "bytes32"
        }
      ],
      "stateMutability": "nonpayable",
      "type": "function"
    },
    {
      "inputs": [
        {
          "internalType": "address",
          "name": "from",
          "type": "address"
        },
        {
          "internalType": "address",
          "name": "to",
          "type": "address"
        },
        {
          "internalType": "euint64",
          "name": "amount",
          "type": "bytes32"
        },
        {
          "internalType": "bytes",
          "name": "data",
          "type": "bytes"
        }
      ],
      "name": "confidentialTransferFromAndCall",
      "outputs": [
        {
          "internalType": "euint64",
          "name": "transferred",
          "type": "bytes32"
        }
      ],
      "stateMutability": "nonpayable",
      "type": "function"
    },
    {
      "inputs": [],
      "name": "decimals",
      "outputs": [
        {
          "internalType": "uint8",
          "name": "",
          "type": "uint8"
        }
      ],
      "stateMutability": "view",
      "type": "function"
    },
    {
      "inputs": [
        {
          "internalType": "euint64",
          "name": "encryptedAmount",
          "type": "bytes32"
        }
      ],
      "name": "discloseEncryptedAmount",
      "outputs": [],
      "stateMutability": "nonpayable",
      "type": "function"
    },
    {
      "inputs": [
        {
          "internalType": "uint256",
          "name": "requestId",
          "type": "uint256"
        },
        {
          "internalType": "uint64",
          "name": "amount",
          "type": "uint64"
        },
        {
          "internalType": "bytes[]",
          "name": "signatures",
          "type": "bytes[]"
        }
      ],
      "name": "finalizeDiscloseEncryptedAmount",
      "outputs": [],
      "stateMutability": "nonpayable",
      "type": "function"
    },
    {
      "inputs": [
        {
          "internalType": "address",
          "name": "holder",
          "type": "address"
        },
        {
          "internalType": "address",
          "name": "spender",
          "type": "address"
        }
      ],
      "name": "isOperator",
      "outputs": [
        {
          "internalType": "bool",
          "name": "",
          "type": "bool"
        }
      ],
      "stateMutability": "view",
      "type": "function"
    },
    {
      "inputs": [],
      "name": "name",
      "outputs": [
        {
          "internalType": "string",
          "name": "",
          "type": "string"
        }
      ],
      "stateMutability": "view",
      "type": "function"
    },
    {
      "inputs": [
        {
          "internalType": "address",
          "name": "operator",
          "type": "address"
        },
        {
          "internalType": "uint48",
          "name": "until",
          "type": "uint48"
        }
      ],
      "name": "setOperator",
      "outputs": [],
      "stateMutability": "nonpayable",
      "type": "function"
    },
    {
      "inputs": [],
      "name": "symbol",
      "outputs": [
        {
          "internalType": "string",
          "name": "",
          "type": "string"
        }
      ],
      "stateMutability": "view",
      "type": "function"
    },
    {
      "inputs": [],
      "name": "tokenURI",
      "outputs": [
        {
          "internalType": "string",
          "name": "",
          "type": "string"
        }
      ],
      "stateMutability": "view",
      "type": "function"
    }
  ],
  "bytecode": "0x608080604052346104cf576128c6803803809161001c82856108d0565b83398101906040818303126104cf5780516001600160401b0381116104cf57826100479183016108f3565b60208201519092906001600160401b0381116104cf5761006792016108f3565b9060209160405161007884826108d0565b5f81525f606060405161008a816108b5565b8281528287820152826040820152015273bc91f3dad1a5f19f8390c400196e58073b6a0bc460606040516100bd816108b5565b73687820221192c5b662b25367f70076a37bc79b6c80825273848b0066793bcc60346da1f49049357399b8d595888301819052731364cbbf2cdf5032c47d8226a6f6fbd2afcdacac6040840181905293909201939093525f5160206128865f395f51905f5280546001600160a01b031990811690941790555f5160206128a65f395f51905f528054841690911790557fed8d60e34876f751cc8b014c560745351147d9de11b9347c854e881b128ea6028054831690911790557fed8d60e34876f751cc8b014c560745351147d9de11b9347c854e881b128ea6038054821673bc91f3dad1a5f19f8390c400196e58073b6a0bc41790557f5ea69329017273582817d320489fbd94f775580e90c092699ca6f3d12fdf7d00805490911673a02cda4ca3a71d7c46997716f4283aa851c2881217905582516001600160401b03811161072c57600454600181811c911680156108ab575b8682101461070e57601f8111610867575b508493601f82116001146108055793819293945f926107fa575b50508160011b915f199060031b1c1916176004555b81516001600160401b03811161072c57600554600181811c911680156107f0575b8582101461070e57601f81116107ac575b508392601f821160011461074b57928192935f92610740575b50508160011b915f199060031b1c1916176005555b80516001600160401b03811161072c57600654600181811c91168015610722575b8482101461070e57601f81116106ca575b508291601f821160011461066a579181925f9261065f575b50508160011b915f199060031b1c1916176006555b620f42409061032464174876e800610948565b916103e8026001600160401b03811690810361064b5761034661035191610948565b806007553090610a1d565b331590811591610638576003548061051457505f5160206128a65f395f51905f5254604051639cd07acb60e01b8152600160048201525f6024820181905290918391839160449183916001600160a01b03165af180156104da5782915f916104e5575b5093805b6103c23082610a1d565b60035560646103cf6109ca565b5f5160206128a65f395f51905f5254604051637702dcff60e01b8152600481019890985260248801939093526044870152859182905f906001600160a01b03165af19283156104da575f936104a7575b50335f525f81525f610435846040832054610a87565b916104403084610a1d565b61044a3384610a1d565b3382525260405f2055610498575b6104623082610a1d565b60405190335f7f67500e8d0ed826d2194f514dd0d8124f35648ab6e3fb5e6ed867134cffe661e98180a4611d7a9081610b0c8239f35b6104a23382610a1d565b610458565b9080935081813d83116104d3575b6104bf81836108d0565b810103126104cf5751915f61041f565b5f80fd5b503d6104b5565b6040513d5f823e3d90fd5b82819392503d831161050d575b6104fc81836108d0565b810103126104cf578190515f6103b4565b503d6104f2565b836105205f9583610a87565b8381801561062a575b606460018060a01b035f5160206128a65f395f51905f52541691604051998a938492631391547f60e01b845260048401528860248401528160448401525af19586156104da575f966105fb575b5083906064875f60018060a01b035f5160206128a65f395f51905f5254166040519788958694637702dcff60e01b86526004860152602485015260448401525af180156104da5783925f916105cc575b506103b8565b83819492503d83116105f4575b6105e381836108d0565b810103126104cf578291515f6105c6565b503d6105d9565b9095508381813d8311610623575b61061381836108d0565b810103126104cf57519483610576565b503d610609565b506106336109ca565b610529565b636e41946d60e11b5f525f60045260245ffd5b634e487b7160e01b5f52601160045260245ffd5b015190505f806102fc565b601f1982169260065f52845f20915f5b868682106106b4575050836001951061069c575b505050811b01600655610311565b01515f1960f88460031b161c191690555f808061068e565b600184958293958501518155019401920161067a565b60065f52835f20601f830160051c810191858410610704575b601f0160051c01905b8181106106f957506102e4565b5f81556001016106ec565b90915081906106e3565b634e487b7160e01b5f52602260045260245ffd5b90607f16906102d3565b634e487b7160e01b5f52604160045260245ffd5b015190505f8061029d565b601f1982169360055f52855f20915f5b8787821061079657505083600195961061077e575b505050811b016005556102b2565b01515f1960f88460031b161c191690555f8080610770565b600184958293958501518155019401920161075b565b60055f52845f20601f830160051c8101918684106107e6575b601f0160051c01905b8181106107db5750610284565b5f81556001016107ce565b90915081906107c5565b90607f1690610273565b015190505f8061023d565b601f1982169460045f52865f20915f5b8888821061085157505083600195969710610839575b505050811b01600455610252565b01515f1960f88460031b161c191690555f808061082b565b6001849582939585015181550194019201610815565b60045f52855f20601f830160051c8101918784106108a1575b601f0160051c01905b8181106108965750610223565b5f8155600101610889565b9091508190610880565b90607f1690610212565b608081019081106001600160401b0382111761072c57604052565b601f909101601f19168101906001600160401b0382119082101761072c57604052565b81601f820112156104cf578051906001600160401b03821161072c5760405192610927601f8401601f1916602001856108d0565b828452602083830101116104cf57815f9260208093018386015e8301015290565b5f5160206128a65f395f51905f5254604051639cd07acb60e01b8152600481019290925260056024830152602090829060449082905f906001600160a01b03165af19081156104da575f9161099b575090565b90506020813d6020116109c2575b816109b6602093836108d0565b810103126104cf575190565b3d91506109a9565b5f5160206128a65f395f51905f5254604051639cd07acb60e01b81525f60048201819052600560248301529091602091839160449183916001600160a01b03165af19081156104da575f9161099b575090565b5f5160206128865f395f51905f52546001600160a01b031691823b156104cf57604051635ca4b5b160e11b815260048101929092526001600160a01b03166024820152905f908290604490829084905af180156104da57610a7b5750565b5f610a85916108d0565b565b908115610afb575b8015610ae9575b602090606460018060a01b035f5160206128a65f395f51905f525416935f604051958694859363022f65e760e31b8552600485015260248401528160448401525af19081156104da575f9161099b575090565b506020610af46109ca565b9050610a96565b9050610b056109ca565b90610a8f56fe60806040526004361015610011575f80fd5b5f3560e01c806306fdde03146101445780632fb74e621461013f578063313ce5671461013a578063344ff1011461013557806334c45743146101305780633c130d901461012b578063537d3c501461012657806354095227146101215780635bebed7e1461011c5780637279e2641461011757806395d89b4114610112578063b6363cf21461010d578063c535803c14610108578063c7b8a75e14610103578063ca5d0880146100fe578063d4febb96146100f9578063de642119146100f4578063e064b9bb146100ef5763eb3155b5146100ea575f80fd5b610c79565b610c15565b610b9d565b610b05565b610ade565b610a71565b61085f565b610829565b610774565b6106a3565b6105ca565b6105ad565b610551565b61049c565b610391565b61035a565b61033f565b6102db565b61018f565b5f91031261015357565b5f80fd5b805180835260209291819084018484015e5f828201840152601f01601f1916010190565b90602061018c928181520190610157565b90565b34610153575f366003190112610153576040515f6004548060011c9060018116908115610278575b60208310821461026457828552602085019190811561024b57506001146101f9575b6101f5846101e981860382610615565b6040519182918261017b565b0390f35b60045f9081529250907f8a35acfbc15ff81a39ae7d344fd709f28e8600b4aa8c65c6b64bfe7fe36bd19b5b818410610237575050016101e9826101d9565b805484840152602090930192600101610224565b60ff191682525090151560051b0190506101e9826101d9565b634e487b7160e01b5f52602260045260245ffd5b91607f16916101b7565b600435906001600160a01b038216820361015357565b602435906001600160a01b038216820361015357565b9181601f84011215610153578235916001600160401b038311610153576020838186019501011161015357565b34610153576060366003190112610153576102f4610282565b602435604435916001600160401b038311610153576103306103379261032a61032360209636906004016102ae565b369161066d565b90610ef3565b9033611009565b604051908152f35b34610153575f36600319011261015357602060405160068152f35b34610153576020366003190112610153576001600160a01b0361037b610282565b165f525f602052602060405f2054604051908152f35b346101535760a0366003190112610153576103aa610282565b6103b2610298565b604435916064356001600160401b038111610153576103d59036906004016102ae565b9190926084356001600160401b0381116101535761041e9561032a6104016104189336906004016102ae565b97909661032333886104133382610e7c565b610cc4565b9161104a565b5f516020611d0e5f395f51905f52546001600160a01b031690813b1561015357604051630f8e573b60e21b815260048101829052336024820152915f908390604490829084905af1918215610497576101f592610487575b506040519081529081906020820190565b5f61049191610615565b5f610476565b611164565b34610153575f366003190112610153576040515f6006548060011c9060018116908115610547575b60208310821461026457828552602085019190811561024b57506001146104f5576101f5846101e981860382610615565b60065f9081529250907ff652222313e28459528d920b65115c16c04f3efc82aaedc97be59f3f377c0d3f5b818410610533575050016101e9826101d9565b805484840152602090930192600101610520565b91607f16916104c4565b346101535760603660031901126101535761056a610282565b602435604435916001600160401b0383116101535761059061041e9336906004016102ae565b9290916105a733836105a23382611670565b610cf1565b3361104a565b34610153575f366003190112610153576020600354604051908152f35b346101535760403660031901126101535760206103376105e8610282565b602435906105fb33836105a23382611670565b33611009565b634e487b7160e01b5f52604160045260245ffd5b90601f801991011681019081106001600160401b0382111761063657604052565b610601565b6001600160401b0381116106365760051b60200190565b6001600160401b03811161063657601f01601f191660200190565b92919261067982610652565b916106876040519384610615565b829481845281830111610153578281602093845f960137010152565b34610153576060366003190112610153576024356001600160401b0381168103610153576044356001600160401b0381116101535736602382011215610153578060040135916106f28361063b565b916107006040519384610615565b8383526024602084019460051b820101903682116101535760248101945b828610610734576107328585600435610d31565b005b85356001600160401b03811161015357820136604382011215610153576020916107698392369060446024820135910161066d565b81520195019461071e565b34610153575f366003190112610153576040515f6005548060011c906001811690811561081f575b60208310821461026457828552602085019190811561024b57506001146107cd576101f5846101e981860382610615565b60055f9081529250907f036b6384b5eca791c62761152d0c79bb0604c104a5fb6f4eb0703f3154bb3db05b81841061080b575050016101e9826101d9565b8054848401526020909301926001016107f8565b91607f169161079c565b34610153576040366003190112610153576020610855610847610282565b61084f610298565b90610e7c565b6040519015158152f35b346101535760203660031901126101535760043561087d3382611670565b80610a5c575b61088f90823391610cf1565b6040805161089d8282610615565b6001815260208101601f198301368237815115610a57578390527f5ea69329017273582817d320489fbd94f775580e90c092699ca6f3d12fdf7d01545f516020611d0e5f395f51905f525490919061090b906108ff906001600160a01b031681565b6001600160a01b031690565b803b15610153575f84518092637d6e912360e11b825281838161093188600483016118c5565b03925af1801561049757610a43575b507f5ea69329017273582817d320489fbd94f775580e90c092699ca6f3d12fdf7d0054610977906108ff906001600160a01b031681565b92833b156101535751633263b83b60e01b8152925f9084908183816109a8631c9e789960e21b888a600485016118d6565b03925af190811561049757610a26936109c792610a29575b5082611b4e565b610a186109f47f5ea69329017273582817d320489fbd94f775580e90c092699ca6f3d12fdf7d0154611919565b7f5ea69329017273582817d320489fbd94f775580e90c092699ca6f3d12fdf7d0155565b5f52600260205260405f2090565b55005b80610a375f610a3d93610615565b80610149565b5f6109c0565b80610a375f610a5193610615565b5f610940565b610ecb565b5061088f610a6a3083611670565b9050610883565b3461015357608036600319011261015357610a8a610282565b610a92610298565b606435916044356001600160401b03841161015357610ab861041e9436906004016102ae565b939092610aca33846105a23382611670565b610ad933826104133382610e7c565b61104a565b34610153575f36600319011261015357610732600754610aff331515610fef565b33611197565b3461015357604036600319011261015357610b1e610282565b6024359065ffffffffffff821680920361015357335f9081526001602090815260408083206001600160a01b03851684529091529020805465ffffffffffff1916831790556040519182526001600160a01b03169033907f921a218a75d18e8ec5704851e6b234a85725b21a2521ce889622c35dedc1fa1290602090a3005b3461015357608036600319011261015357610bb6610282565b602435906044356001600160401b03811161015357610bd99036906004016102ae565b90916064356001600160401b0381116101535761041e9461032a610c04610c0e9336906004016102ae565b969095369161066d565b903361104a565b3461015357608036600319011261015357610c2e610282565b610c36610298565b90604435916064356001600160401b0381116101535761041e9361032a610c64610c739336906004016102ae565b61032333886104133382610e7c565b91611009565b346101535760603660031901126101535761041e610c95610282565b610c9d610298565b60443591610cb033846105a23382611670565b610cbf33826104133382610e7c565b611009565b15610ccd575050565b631ae7729b60e11b5f9081526001600160a01b039182166004529116602452604490fd5b15610cfa575050565b63118f6e5360e31b5f5260045260018060a01b031660245260445ffd5b15610d1f5750565b630ab5f57d60e01b5f5260045260245ffd5b91825f525f516020611d4e5f395f51905f5260205260405f205415610e6d57825f525f516020611d4e5f395f51905f5260205260405f206040519081602082549182815201915f5260205f20905f5b818110610e57575050509181610d9e610da393610da7950382610615565b6117d5565b1590565b610e485781610e45915f937f1af0453083661051f6e56e5c070792320652e612154bf9af8637bb1e7655b99d8580a27f83bbbc07896439e5d950a6cead04cbc676180af7a61cecf43f5296475057f571610e34610e0c845f52600260205260405f2090565b5492610e1a85851515610d17565b6040516001600160401b0390911681529081906020820190565b0390a25f52600260205260405f2090565b55565b63cf6c44e960e01b5f5260045ffd5b8254845260209093019260019283019201610d80565b63d66ca67560e01b5f5260045ffd5b6001600160a01b03828116911690811491908215610e9957505090565b5f9081526001602090815260408083206001600160a01b0390941683529290522065ffffffffffff9150541642111590565b634e487b7160e01b5f52603260045260245ffd5b8051821015610a575760209160051b010190565b5f516020611d2e5f395f51905f5254610f3f926020929091610f1f906108ff906001600160a01b031681565b905f60405180968195829463196d0b9b60e01b845233906004850161112c565b03925af1908115610497575f91610fc0575b505f516020611d0e5f395f51905f5254610f75906108ff906001600160a01b031681565b803b1561015357604051630f8e573b60e21b815260048101839052336024820152905f908290604490829084905af1801561049757610fb2575090565b80610a375f61018c93610615565b610fe2915060203d602011610fe8575b610fda8183610615565b8101906110f2565b5f610f51565b503d610fd0565b15610ff657565b636e41946d60e11b5f525f60045260245ffd5b91906001600160a01b038316156110375761018c926110326001600160a01b0383161515610fef565b611293565b631a9bbf8b60e11b5f525f60045260245ffd5b919361105b61106592958685611009565b938486853361148d565b906020611070611545565b606460018060a01b035f516020611d2e5f395f51905f525416945f6040519687948593637702dcff60e01b8552600485015260248401528860448401525af19081156104975761018c946110cb935f936110d1575b50611293565b906115b8565b6110eb91935060203d602011610fe857610fda8183610615565b915f6110c5565b90816020910312610153575190565b6054111561110b57565b634e487b7160e01b5f52602160045260245ffd5b90605482101561110b5752565b93926111599061116293606093875260018060a01b03166020870152608060408701526080860190610157565b9301600561111f565b565b6040513d5f823e3d90fd5b156111775750565b636b8830d760e11b5f9081526001600160a01b0391909116600452602490fd5b91906111c7906111a9816003546119a0565b9091906111b581611996565b506003556111c1611545565b91611aee565b9182906001600160a01b038116908115801561123f576111e9846003546115b8565b6111f281611996565b506003555b1561122f575b5061120782611996565b505f7f67500e8d0ed826d2194f514dd0d8124f35648ab6e3fb5e6ed867134cffe661e98180a4565b6112399083611ca5565b5f6111fd565b6112628461125c8460018060a01b03165f525f60205260405f2090565b54611a1d565b61126b81611996565b506112768382611ca5565b6001600160a01b0383165f908152602081905260409020556111f7565b9092916001600160a01b038216801592916112d89084156113b357806112be6112d0926003546119a0565b9290926112ca81611996565b50600355565b6111c1611545565b9485936001600160a01b038216938415918215611365576113076112fe886003546115b8565b6112ca81611996565b15611355575b5015611345575b5061131e83611996565b507f67500e8d0ed826d2194f514dd0d8124f35648ab6e3fb5e6ed867134cffe661e95f80a4565b61134f9084611ca5565b5f611314565b61135f9086611ca5565b5f61130d565b6113828761125c8660018060a01b03165f525f60205260405f2090565b61138b81611996565b506113968582611ca5565b6001600160a01b0385165f90815260208190526040902055611307565b6113e2816113d08660018060a01b03165f525f60205260405f2090565b546113dd8782151561116f565b61192c565b9190916113ee81611996565b506113f98682611ca5565b6001600160a01b0386165f908152602081905260409020556112d0565b6001600160a01b039182168152911660208201526040810191909152608060608201819052810183905260a09290918190848401375f828201840152601f01601f1916010190565b3d15611488573d9061146f82610652565b9161147d6040519384610615565b82523d5f602084013e565b606090565b9195949293909290863b156115365760209392916114c09160405196879586956346083bfd60e01b875260048701611416565b03815f6001600160a01b0388165af15f9181611515575b5061151157826114e561145e565b805191908261150a57636e41946d60e11b5f526001600160a01b03821660045260245ffd5b9050602001fd5b9150565b61152f91925060203d602011610fe857610fda8183610615565b905f6114d7565b5050505050905061018c611aa8565b5f516020611d2e5f395f51905f5254604051639cd07acb60e01b81525f600482018190529091602091839160449183916001600160a01b031661158c60248401600561111f565b5af1908115610497575f9161159f575090565b61018c915060203d602011610fe857610fda8183610615565b5f602091611625938115611648575b801561163a575b5f516020611d2e5f395f51905f52546040516303056db360e31b8152600481019390935260248301919091526001600160f81b031983166044830152909384926001600160a01b0390921691839182906064820190565b03925af1908115610497575f9161159f575090565b50611643611545565b6115ce565b9050611652611545565b906115c7565b90816020910312610153575180151581036101535790565b5f516020611d0e5f395f51905f52546040516382027b6d60e01b815260048101929092526001600160a01b039283166024830152909160209183916044918391165afa908115610497575f916116c4575090565b61018c915060203d6020116116e6575b6116de8183610615565b810190611658565b503d6116d4565b906116f782610652565b6117046040519182610615565b8281528092611715601f1991610652565b0190602036910137565b90602080835192838152019201905f5b81811061173c5750505090565b825184526020938401939092019160010161172f565b916117686117769260608552606085019061171f565b908382036020850152610157565b906040818303910152815180825260208201916020808360051b8301019401925f915b8383106117a857505050505090565b90919293946020806117c6600193601f198682030187528951610157565b97019301930191939290611799565b80515f905f905b808210611870575050916020916117f561185b94611b40565b6117fe816116ed565b906024858301377fed8d60e34876f751cc8b014c560745351147d9de11b9347c854e881b128ea602545f9061183d906108ff906001600160a01b031681565b9260405196879586948593632c027b1360e21b855260048501611752565b03925af1908115610497575f916116c4575090565b9091600961189d6118818587610edf565b51601e1a61188e81611101565b61189781611101565b60ff1690565b10156118b6576118ae600191611b40565b9201906117dc565b63ce54a8d160e01b5f5260045ffd5b90602061018c92818152019061171f565b916118f490604092959495845260606020850152606084019061171f565b6001600160e01b0319909416910152565b634e487b7160e01b5f52601160045260245ffd5b5f1981146119275760010190565b611905565b919091602061194561193e8584611c1a565b94836115b8565b91606460018060a01b035f516020611d2e5f395f51905f525416935f6040519586948593637702dcff60e01b85528a6004860152602485015260448401525af1908115610497575f9161159f575090565b61018c3082611ca5565b909190806119b557506119b1611aa8565b9190565b916119c09083611a1d565b60206119cc8483611c1a565b93606460018060a01b035f516020611d2e5f395f51905f525416935f6040519586948593637702dcff60e01b85528a6004860152602485015260448401525af1908115610497575f9161159f575090565b5f602091611625938115611a98575b8015611a8a575b5f516020611d2e5f395f51905f525460405163022f65e760e31b8152600481019390935260248301919091526001600160f81b031983166044830152909384926001600160a01b0390921691839182906064820190565b50611a93611545565b611a33565b9050611aa2611545565b90611a2c565b5f516020611d2e5f395f51905f5254604051639cd07acb60e01b81526001600482015290602090829060449082905f906001600160a01b031661158c602484018361111f565b9060646020925f60018060a01b035f516020611d2e5f395f51905f5254166040519687958694637702dcff60e01b86526004860152602485015260448401525af1908115610497575f9161159f575090565b906020820180921161192757565b805f525f516020611d4e5f395f51905f5260205260405f2054611c0b575f525f516020611d4e5f395f51905f5260205260405f208151916001600160401b03831161063657680100000000000000008311610636578154838355808410611be5575b506020611bc29101915f5260205f2090565b5f5b838110611bd15750505050565b600190602084519401938184015501611bc4565b825f528360205f2091820191015b818110611c005750611bb0565b5f8155600101611bf3565b633f06d22b60e01b5f5260045ffd5b5f602091611625938115611c95575b8015611c87575b5f516020611d2e5f395f51905f5254604051631391547f60e01b8152600481019390935260248301919091526001600160f81b031983166044830152909384926001600160a01b0390921691839182906064820190565b50611c90611545565b611c30565b9050611c9f611545565b90611c29565b5f516020611d0e5f395f51905f52546001600160a01b031691823b1561015357604051635ca4b5b160e11b815260048101929092526001600160a01b03166024820152905f908290604490829084905af1801561049757611d035750565b5f6111629161061556feed8d60e34876f751cc8b014c560745351147d9de11b9347c854e881b128ea600ed8d60e34876f751cc8b014c560745351147d9de11b9347c854e881b128ea6015ea69329017273582817d320489fbd94f775580e90c092699ca6f3d12fdf7d02a164736f6c634300081b000aed8d60e34876f751cc8b014c560745351147d9de11b9347c854e881b128ea600ed8d60e34876f751cc8b014c560745351147d9de11b9347c854e881b128ea601",
  "linkReferences": {},
  "deployedLinkReferences": {}
}